:020000021000EC
:10B0000000400020497B0200897B020025D401001A
:10B010000000000000000000000000000000000030
:10B02000000000000000000000000000C1D9010085
:10B030000000000000000000C5D90100917B020063
:10B0400031F90100937B020041020200937B020070
:10B05000937B02000000000061FD0100937B020071
:10B06000937B0200937B0200937B0200937B0200A0
:10B07000937B0200937B0200937B0200937B020090
:10B08000937B0200C9DB0100937B0200937B0200EB
:10B09000937B0200937B020031890200937B0200C4
:10B0A000937B0200937B0200000000000000000080
:10B0B0000000000000000000000000000000000090
:10B0C00010B5064C2378002B07D1054B002B02D07E
:10B0D000044800E000BF0123237010BD9020002031
:10B0E00000000000DC900200044B10B5002B03D0E0
:10B0F0000349044800E000BF10BDC0460000000046
:10B1000094200020DC900200164B002B00D1144B41
:10B110009D46402292029A1A924600218B460F4683
:10B120001348144A121A00F065F80F4B002B00D098
:10B1300098470E4B002B00D09847002000210400B8
:10B140000D000D48002802D00C4800E000BF00F0C0
:10B150002DF82000290006F01FF900F011F8C04674
:10B160000000080000400020000000000000000077
:10B1700090200020803D0020000000000000000022
:10B18000084B10B50400002B02D0002100E000BFE6
:10B19000054B1868836A002B00D09847200000F008
:10B1A00031F8C04600000000148D020070B5002682
:10B1B0000C4D0D4C641BA410A64209D100260DF0C5
:10B1C0009DFD0A4D0A4C641BA410A64205D170BD1A
:10B1D000B300EB5898470136EEE7B300EB589847B9
:10B1E0000136F2E778200020782000207820002027
:10B1F0007C20002003001218934200D17047197080
:10B200000133F9E7FEE7C046F0B54F46D64646465D
:10B21000C0B5214B1978994600292AD01F4B00242C
:10B2200098461F4B1F4F01269A4603E00134E4B2B3
:10B230008C421ED243461B6832009C46E5006544A2
:10B2400028783B6882401A42F0D093433B6004F078
:10B250007DFD32002B7851469A4009680A40010072
:10B2600099408A420AD04B4601341978E4B28C42A4
:10B27000E0D31CBC90469946A246F0BD69780139DE
:10B280004A425141091A484241416A68C9B2002AFA
:10B29000E9D018009047E6E7AC200020DC20002031
:10B2A000D4200020D8200020F8B5124D0700280037
:10B2B00000F06CF9002807D10124BC400E4E336821
:10B2C0001C4202D0A3433360F8BD380004F03EFDB9
:10B2D0000A4A136800280BD0234313603368002206
:10B2E0001C43074B28001968346000F0DBF8EBE7DB
:10B2F000A343F2E7B4200020D8200020D42000206F
:10B30000B0200020F0B54746CE4680B50D000700BE
:10B3100083B014000720042A2CD904F0F3FB002882
:10B3200033D01C4B1C4A1F601C4B1D701C4B1C60F7
:10B33000002313601B4A6C1E1360E4B2002D1ED064
:10B34000194BE400994603233C1901AD083F984688
:10B35000002602E0083CBC4211D043462B70A37883
:10B3600020784A462900AE70EE706B7004F0D4FB72
:10B370000028EFD003B00CBC90469946F0BD0B4AB4
:10B3800000210B4800F060F8F4E704F089FB002886
:10B39000C7D0EFE7DC200020D4200020AC20002024
:10B3A000B0200020D8200020A9B2010009B201007D
:10B3B000188D020070B5094D2B78002B0BD000249E
:10B3C000074E3268E300985C012104F061FC2B78A1
:10B3D0000134A342F5D8002070BDC046AC20002047
:10B3E000DC200020002300B585B001AA9060002178
:10B3F00003481380536000F005F805B000BDC04657
:10B4000001400000BFF34F8F034B044ADA60BFF3E3
:10B410004F8FC046FDE7C04600ED00E00400FA058E
:10B4200010B504F069F9037B002B03D00268836830
:10B430001000984710BDC046024B01301860002034
:10B440007047C046E020002070B50E0082B0151E87
:10B45000046821D0237B0820002B02D16368002BD5
:10B4600001D002B070BD102200212000FFF7C2FE03
:10B470003200FA21094BA560561EB24100938900A3
:10B480002300074804F0ACF86060431E98410D2388
:10B49000404298430E30E4E70720E2E721B4010080
:10B4A0001C8D0200F0B54746CE46A12380B517009B
:10B4B000334ADB00D35846689846324B85B00500C6
:10B4C00089461C68002E59D0037B002B36D14B4691
:10B4D000414663430131480818180DF067FA2F60A0
:10B4E000EFF30583002B10D000240200009403AB7F
:10B4F00009213000039404F0C9F8012826D0042063
:10B5000005B00CBC90469946F0BD022402000094A0
:10B5100000230421300004F0B9F80128EFD103F032
:10B5200045FB0094020000230121300004F0AEF836
:10B530000128E4D1012300202B73E1E7300004F05F
:10B54000CFF803000020002BC1D0D9E703F034FB73
:10B550000094020003AB0621300004F097F80128A4
:10B56000CDD1039B002BE5D08022074B52055A60BA
:10B5700040BFBFF34F8FBFF36F8FDBE70820BFE7FC
:10B5800000100140E020002000ED00E010B543680D
:10B5900084B00400002B2CD0EFF30583002B0FD1D7
:10B5A0000223002200930321002304F06FF803001C
:10B5B0000420012B02D100230020237304B010BD0E
:10B5C0000023002203930093082103AB04F05EF8EC
:10B5D00001280CD1039B002BEDD08022064B520595
:10B5E0005A6040BFBFF34F8FBFF36F8FE3E7042074
:10B5F000E4E70820E2E7C04600ED00E0F0B5EFF335
:10B60000108172B60A4B5A68002A0DD10124802598
:10B61000084E5C607459084F3C401C6077510270C2
:10B62000002900D162B6F0BD01230370F8E7C046DF
:10B63000683D002000E100E0FC06FFBC10B5084BAF
:10B640005A68002A0BD0002809D1EFF3108272B695
:10B6500004491C680C605860002A00D162B610BD15
:10B66000683D002000E100E0F0B5294C294F6688D4
:10B6700063683601BA1983B05168002B45D05A88E7
:10B68000033292009A188023DB00C818824224D229
:10B690001368013321D0204D9388AB4214D0138816
:10B6A000002B11D01D4862608388016803209B0035
:10B6B000C918538820700020033300909BB21848AB
:10B6C00001F050FC03B0F0BD538803339B00D21847
:10B6D000824202D213680133DED1BE19B389002B36
:10B6E0000BD00523022223700C4B0D489A80196859
:10B6F000013A002301F0A8FCE4E7002301220848F6
:10B7000001F0A2FC04232370DCE70A000832BAE748
:10B710005C210020E8210020FFFF0000082200201B
:10B7200080200020F0B5C64600B54368002B03D04A
:10B73000324A1468A34234D200230B80304B0027D6
:10B740009C46304D3B0163445E688023DB00F41867
:10B7500000230DE01A68013212D09A88AA4209D05B
:10B760001A88002A06D09A6890460268904510D040
:10B77000002B0BD05A88033292009B18A342E9D3C6
:10B780007B1C0B80012F36D00127DBE73300083309
:10B79000F4E743601C4B1B890381012004BC9046E5
:10B7A000F0BD52689342C7D89A07C5D1164A04899A
:10B7B00012899442C0D102689C68A242BCD1104A4E
:10B7C00094465268934207D98020C0008046424484
:10B7D000934201D200230BE062465269002093425B
:10B7E000DCD98024E400A44662449342D6D20123EB
:10B7F0000B800120D2E70020D0E7C0468020002047
:10B80000E8210020FFFF00005C210020F0B54E463B
:10B81000DE4657464546E0B5C74C8DB0256F81469C
:10B82000EF007E1BB600A3199B46A35D062B00D933
:10B830007DE0C2499A008A589746002800D08DE0E2
:10B84000BF4E317B3278002900D192E23073072A53
:10B850006DD8BC4992008A589746002800D07DE0F8
:10B860007A1B91008A46A046D044414609790129B5
:10B8700000D1CCE2002900D1AFE2022957D1002249
:10B8800007AE726064E0B0487A1B82469200A2184C
:10B89000518A0901514488464946002968D14046E9
:10B8A0004146406809898146127C89008944062AFC
:10B8B00000D999E3A54992008A589746002850D1AB
:10B8C0005A461679012E00D1C5E0002E00D1CBE2F8
:10B8D000022E00D1D9E0032E21D19D4E00900223EB
:10B8E0009C4A31689C4801F03DFB3368964A9C466F
:10B8F000934B90465B881B01D218516831606146BA
:10B900005160B188118102224146B2804A465A54A0
:10B910005B461A71002864D07B1B9B00E35C01200E
:10B920008E4907AE0A7882430A700D3001E00F207D
:10B9300007AE5A4612787060023A012A08D85A4671
:10B94000917D874A106C40181064506C411A516404
:10B95000062B21D8834A9B00D3589F46012007AE6F
:10B96000E7E701207D4907AE0A7882430A70E0E7E5
:10B970004046D1880089CA1C8018424610810322A3
:10B980005242511A4246528901205218414607AE8E
:10B990004A81CEE705233370734D2F0020372B6883
:10B9A000002B01D0300098470435AF42F7D1236F08
:10B9B0001C22D800C01A800020180021FFF71AFCB2
:10B9C000636F002B08D0226F013B511C03220A40F9
:10B9D00022676367002B54D10421604A13788B439C
:10B9E00013700DB03CBC90469946A246AB46F0BDE4
:10B9F00002237D1BAD00651933702B89B381AB88A1
:10BA0000F381EB68B3602B7C063B5A42534133749D
:10BA1000C2E701237D1BAD00651933702B89B3810B
:10BA2000AB88F381EB68B360B6E704237D1BAD0000
:10BA300065193370EB88B3810023F381ACE70323EE
:10BA40007D1BAD0065193370EB88B3812B89F381C1
:10BA5000EB68B360A0E73C4B9A461B78022B00D101
:10BA6000B5E253461B7C022B00D19FE202213B4AE8
:10BA700013780B43B34307AE137070600023337029
:10BA80008AE70020FFF7C2FEABE7314B0122984660
:10BA9000414600230968304801F0D6FA43464A4639
:10BAA0009E805B461A7135E77288274B12019B18FE
:10BAB0009A89002A00D15AE2052302223370244BCE
:10BAC00025489A801968013A002301F0BDFA002840
:10BAD00000D186E77B1B9B00E35C244A904200D1A7
:10BAE000CDE625E703201A4B726899881B68890008
:10BAF0005918538830700020033300909BB21648C9
:10BB000001F030FAE3E71A4B1A4A1E881A4B124822
:10BB1000596800230093013301F024FA002800D073
:10BB20002EE2012336017D1B5644AD00B373641928
:10BB30000533237455E7C04670210020208D020094
:10BB40005C2100203C8D0200E82100205C8D020079
:10BB500008220020088E02008020002058210020AA
:10BB600010210020788D0200F02000201D1D000013
:10BB700012220020048E0200E42000200023D4487A
:10BB8000D44943607B1B9B009A46A24402935346D0
:10BB90009B690360FFF7C6FD002800D101E2002386
:10BBA000321DA218009349460133CB4801F0DAF95F
:10BBB000022352461374002800D112E7029BE35C73
:10BBC0000E202FE0C54A536C002B00D174E10720F2
:10BBD000116C013B4E1C3040C900106453640020BE
:10BBE00053189A467E1BB600A6198A58B18A9B88BC
:10BBF000890000904944B84801F0B4F95246B38A2C
:10BC000092889B18B382B37D013BDBB2B375002BE6
:10BC100001D101333374002800D1E2E60E207B1BF2
:10BC20009B00E35C46467A1B9200A218D1883689B5
:10BC3000CA1CB6184246168103225242511A424685
:10BC40005289521841464A8147E73200002349464B
:10BC50000C320831A21800939F48013301F082F999
:10BC60007A1B9200A618B37D59424B4101215B42D9
:10BC70008B4303333374002800D1B2E6A35C0E205B
:10BC8000D0E73200002349460832A218043100935D
:10BC90009148013301F066F97A1B9200A35CA21867
:10BCA000D91E4E1EB14105311174002800D198E60D
:10BCB00086E78B48B6E70023321DA2180093494659
:10BCC0000133854801F04EF902217B1B9B00E218ED
:10BCD0001174002800D184E6E35C71E7814A716841
:10BCE0009388498803335B18938002233370FFF7EE
:10BCF000BBFCECE60723337000237A4A73601168BB
:10BD000075480093784A023301F02CF9DFE6774A50
:10BD1000738892461B0153445968062200233270EF
:10BD20006D480093724A023301F01CF9CFE6B37AF2
:10BD3000002B09D000236D4AB3729389002B03D1E5
:10BD4000927B002A00D04BE1F37A002B09D000232C
:10BD5000F372664B9A8B002A03D19B7F002B00D095
:10BD60003DE100233370738073607B1B9B00E35CB9
:10BD700085E5072A00D9DAE55E48910040588746F4
:10BD800001233370B37AD3E7564A584913688A4679
:10BD90009C4673881B01C91848681060604648605B
:10BDA0009088088102219180B5E733894F4A013399
:10BDB000338100233373137859424B41DBB2B372A2
:10BDC000127C51424A41F27201223270B0E7072AD6
:10BDD00000D9ACE5484A525897460822002108A8E5
:10BDE000FFF708FA4346DB6804AA079394460A2340
:10BDF00007AE634419003000FFF794FC00283FD1E0
:10BE000002234246137153460A20E35C91E53B4B03
:10BE10001B789B0752D53A488388012B1CD833499D
:10BE200002938A461B01043353441900354B059293
:10BE30009C4606239946C8444246A9460D002B1F3E
:10BE40001B78002B62D0029B103501338380029354
:10BE50009BB2012BF3D94D4608220021FFF7CAF906
:10BE60007B1B9B00E35C0AE51E4B1F4A1968009090
:10BE70000223194801F076F801235A46137149E567
:10BE80004246716814488B88D3800B88138104ABB9
:10BE90005B891D4A02934B460093012301F062F82F
:10BEA000002877D1029B114A1B01D31801229A73F3
:10BEB00002234246137194E51B68FFDE082200212D
:10BEC0000F48FFF797F953460220E35C07AE30E5D1
:10BED000E4200020122200208020002010210020D9
:10BEE0001D1D000008220020108E0200E821002005
:10BEF000088E0200948D0200B48D020058210020AB
:10BF000014220020FFFF0000048E02002B68802610
:10BF10009846F6000168049346440395002936D0FC
:10BF20004B8803339B00C918B1421CD20B68013304
:10BF300019D08B886345F3D00D88002DF0D015887B
:10BF400001609D42EAD10023284A0093284801332A
:10BF50004D4601F007F800283BD10122029B1B014E
:10BF600053449A733DE50023039D03606BE75968D2
:10BF7000013200231E4801F067F804233370A6E560
:10BF800006217B1B9B00E2181174E35C18E6049900
:10BF90000831C9E702234246137153460E20E35C81
:10BFA000C7E4029B0A30E35C07AEC2E401265346B5
:10BFB00036019B1959680023984600930D4A0233B5
:10BFC0000B4800F0CFFF534642469A55A2E40026A4
:10BFD000EDE7059B0E209B00E35C07AEA9E401237F
:10BFE0007380FFF741FB72E50F201BE6048E020011
:10BFF00080200020088E020010B50800FFF706FC24
:10C0000010BDC04610B5064A1378082B06D0054966
:10C010009C00605000200133137010BD0C20FCE721
:10C0200010220020F0200020F0B5DE46454657469D
:10C030004E46E0B58DB01422002107A8FFF7DAF8CC
:10C04000AB4D2B789A0712D5AA4C250020352368D2
:10C05000002B01D007A898470434A542F7D100204F
:10C060000DB03CBC90469946A246AB46F0BDDA07FF
:10C07000F5D4012213432B7000F012FF9E4B0026D3
:10C080001B6800249A469D4B1A68C0231B019C46DE
:10C09000944463460093002301930393984BB44662
:10C0A0009946984B9B46984B1168994243D15368E7
:10C0B00096498B4200D198E095498B423BD1039B36
:10C0C000002B00D0E1E08F4F8023022110003A6066
:10C0D000DB00B980D31892680830013200D1FEE04D
:10C0E0008C49564602228846A24602E00168013188
:10C0F00014D08188414508D00188002905D0816885
:10C100008E4202D20E0001210191418803318C0040
:10C11000521892B20019BA809842E7D3023A511EDF
:10C120008A4104215446B24652420A4004326146D2
:10C1300011438C4610E08023DB00D318110002E08D
:10C1400004318B423CD008680130F9D003214846C5
:10C15000621C2401215494B21A00009B9342A2D184
:10C16000019B6646002B00D0BEE0F6B20B2E05D830
:10C17000694BB6009B599F4600230593674A536F4E
:10C18000032B12D86649496C08290ED8116F58182C
:10C1900003210840C100091A0120890051180870C4
:10C1A0006846007D0133087153672B785A0700D524
:10C1B00055E70422002013432B70FFF727FB4EE7BF
:10C1C00059460968002959D04D4E0220B046210138
:10C1D000885541444A60534A088154800134A4B2CE
:10C1E000624601210A439446B6E7002344482101F0
:10C1F00043548846030043441E005A600491802340
:10C2000002211000DB003181D3189268083001321E
:10C2100067D0002102913F490222884621005446FE
:10C220008A4614E00188002914D08168A14202D90D
:10C230000C0001210191418803318F00521892B204
:10C24000C0193281984208D20168013105D0818835
:10C250004145E7D101210291EDE75246A246140083
:10C260002749049A88466946097A4244917361468F
:10C270000222013411438C46A4B26DE759460A608C
:10C2800002228A80013A0392AAE71D4802218046D1
:10C290001C4F2301195438684344013458601981F4
:10C2A000A4B211E70B20DBE602222B78114C1343DA
:10C2B000012293432B70250020352368002B01D0E9
:10C2C00007A898470434A542F7D1C8E6012305938F
:10C2D00054E70223059351E7032305934EE7042215
:10C2E00025E700220292BBE75246034B1A603CE767
:10C2F00058210020F02000206C2100208020002008
:10C30000E821002008220020DEC0ADDEFE011EF183
:10C31000FF011EF1FFFF0000D48D020070210020FC
:10C32000102100205C21002030B5040083B00D00F6
:10C33000002819D0002917D06B46991DFFF7F2F994
:10C34000002813D06B46DA88094B12019B189A8992
:10C35000616801329A812960636800200C336B6048
:10C360000123A37203B030BD0520FBE70A20F9E7E3
:10C37000E821002010B5040082B0002819D06B46D7
:10C38000991DFFF7CFF9002811D06B46DA880B4BC7
:10C3900012019B189A89002A0DD0A17A00290AD08F
:10C3A000013A9A8100230020A37202B010BD0A2036
:10C3B000FBE70520F9E70620F7E7C046E821002063
:10C3C00070B51A4B04001B789B071CD500281CD0A5
:10C3D000CB1C9BB2FD2B1AD8154A1078002806D129
:10C3E000568910893018181880B2FF2811D9157C89
:10C3F0000720002D06D1568B158B75195D19ADB22E
:10C40000FF2D10D970BD0220FCE70520FAE70920B6
:10C41000F8E700250020000112189B195381002025
:10C4200025806180EEE701250638F4E758210020D9
:10C43000E821002010B50F4B1B789B0716D500286C
:10C4400016D00388022B0FD80B4A1B01D218538930
:10C4500041885C1A032C07D42300033B538100233B
:10C4600003804380002010BD0420FCE70220FAE78F
:10C470000520F8E758210020E8210020F0B5DE462D
:10C4800057464E464546E0B57C4B85B01A78930733
:10C4900000D4C0E0002900D1C1E00D88784B9D4256
:10C4A00000D1AFE04B88002B00D1ABE00F894D6885
:10C4B000002F00D1DBE02B689B0700D0ADE02E0001
:10C4C000032408360023A046944605E0444632681B
:10C4D0000836224200D0A0E001339F42F6D86246DF
:10C4E00000230435FF00EF192E8808359B199BB2F5
:10C4F000BD42F9D1DD1CADB2FD2D00D991E0614EF8
:10C500003778002F08D174893789A0464744EF193E
:10C51000BFB2FF2F00D8ADE0347C0727002C72D1CA
:10C52000748BA046348BA446C444AC446446A4B285
:10C53000FF2C68D80124063F03943C014544ADB26A
:10C5400037197D81504F0095B84645463F68A4464F
:10C5500001370C892F604D4D0294A9466D6FA84696
:10C56000032D00D97CE04A4DAB466D6C0195082542
:10C570002D1BAA46019D554500D971E00E88032563
:10C58000B2464E884968B44600914946096F0E008C
:10C5900046442E40F100891B0226890049440E7052
:10C5A000CB80664600238E804B8156460B746B46CB
:10C5B0000E819E894346CF604E828D828C7549469E
:10C5C00001334B67002C37D05E46366C0721B446EA
:10C5D000E6003824019D009B65442940C9005C4465
:10C5E00059449E19A4469046814603E02900083329
:10C5F000B34218D00D001A0011CA11C56145F5D11A
:10C600005946F4E70427380005B03CBC90469946EB
:10C61000A246AB46F0BD0227F5E70327F3E705275F
:10C62000F1E70927EFE75946496C42468C465946DF
:10C630004846029B63444B64002806D000234360B5
:10C640008372144B07601B89038100275307DAD4D8
:10C6500004231A43094B00201A70FFF7D7F8D2E7DA
:10C66000009A6644D31A033B73810827CBE7002363
:10C67000032544E70024002703945EE758210020A7
:10C68000FFFF0000E82100206C2100207021002025
:10C69000102100205C210020F0B55746DE464E46B2
:10C6A0004546E0B5170083B0002A00D18BE05E4B11
:10C6B0001C78A30700D47DE0002900D183E00B881B
:10C6C0009B465A4B9B4500D181E04B889C46002BF2
:10C6D00000D17CE00B894E68002B15D032689207A0
:10C6E00000D072E032000325804608320021AA46BD
:10C6F000180004E05546136808322B4265D1013119
:10C700008842F7D8030040463A8800927A8801921E
:10C71000474A116801311160464A9146526F90466E
:10C72000032A56D8444A9246576C0822D21A974296
:10C730004FD84A460325126F42442A40D500AA1A10
:10C74000022592004A441570654695806D46AD8875
:10C75000D160D5805D4615810025558115746D46E3
:10C760002D88937555820325958242464D460132A8
:10C770006A67002B43D05246126C3825BA18072737
:10C780003A40DF00BC465544B444A8466546D20052
:10C790009C465244894683462B0003E03A00083603
:10C7A000B34223D01700310021C921C74245F5D13A
:10C7B0005246F4E70226300003B03CBC904699464E
:10C7C000A246AB46F0BD0526F5E70326F3E70426AF
:10C7D000F1E70321009B49421A01184B08269B18D8
:10C7E000019A891A5A8952185A81E4E75246526CC2
:10C7F000634694465246494658466344536400286B
:10C8000006D00023436083720D4B01601B890381B6
:10C8100000266307CFD404231C43034B00201C7065
:10C82000FEF7F4FFC7E7C04658210020FFFF0000D5
:10C830006C2100207021002010210020E821002020
:10C840005C210020F0B5DE4657464E464546E0B531
:10C8500087B0002800D1C9E07D4B1A78930700D437
:10C86000BBE0002900D1C1E00D887A4B9D4200D188
:10C87000C0E04B88002B00D1BCE00F894D68002F31
:10C8800000D1DDE02B689B0700D0B1E02E0003242F
:10C8900008360023A046944605E044463268083630
:10C8A000224200D0A4E001339F42F6D86246002322
:10C8B0000435FF00EF192E8808359B199BB2BD4245
:10C8C000F9D1DD1CADB2FD2D00D995E0624E37786F
:10C8D000002F08D174893789A0464744EF19BFB2A9
:10C8E000FF2F00D8AFE0347C0727002C76D1748B63
:10C8F000A046348BA446C444AC446446A4B2FF2C86
:10C900006CD80124063F05943C014544ADB237196B
:10C910007D81524F0195B84645463F68A446013790
:10C920000C892F604E4D0394A9466D6FA846032DC8
:10C9300000D97EE04B4DAB466D6C029508252D1B52
:10C94000AA46029D554500D973E00E88B2464E882E
:10C950004968B44604914946096F06684144019606
:10C960000D0003263540E900491B89004944CB806E
:10C9700053460B8100234B8104330B746B46654691
:10C980009B8A0E708E82019E4B8243468D80CF60C3
:10C990008C758E61494601334B67002C37D05E465B
:10C9A000366C0721B446E6003824029D049B65449A
:10C9B0002940C9005C4459449E19A44690468146CA
:10C9C00003E029000833B34218D00D001A0011CA41
:10C9D00011C56145F5D15946F4E70227380007B083
:10C9E0003CBC90469946A246AB46F0BD0527F5E70C
:10C9F0000327F3E70427F1E70927EFE75946496CD6
:10CA000042468C4659464846039B63444B64002388
:10CA100043608372144B07601B890027038153070F
:10CA2000DCD404231A430A4B00201A70FEF7EEFEF2
:10CA3000D4E7019A6644D31A033B73810827CDE7F4
:10CA40000023032542E70024002705945CE7C04645
:10CA500058210020FFFF0000E82100206C21002069
:10CA600070210020102100205C21002070B5184C9E
:10CA70002278930720D5174B984226D0164D696F20
:10CA8000032917D8154B5B6C082B13D82B6FCE18C6
:10CA900003231E40F3009B1B05269B00EB181E7012
:10CAA0000131043E1E71D88069670025530705D502
:10CAB000280070BD0825FBE70225F9E704230020C4
:10CAC0001A432270FEF7A2FEF2E70425F0E7C04603
:10CAD00058210020FFFF00007021002010210020BD
:10CAE00070B516480278930725D515494B6F032B6F
:10CAF0001ED8144C646C082C1AD80C6F1D19032412
:10CB00002540EC00641B06250133A40065544B67E7
:10CB10000D4B1978002901D0012119730024530706
:10CB200007D404231A4302700020FEF76FFE00E0D2
:10CB30000824200070BD0224FBE7C04658210020D5
:10CB400070210020102100205C210020F0B5D64685
:10CB50004F464646C0B58C4611002E4A12789207C1
:10CB600055D500293BD0002B39D09A889046012A10
:10CB700048D8294C12010432A2180024A146274F9C
:10CB8000141F2478002C34D11C681668002C3BD06C
:10CB900065880335AD0064198025ED00AA4656442A
:10CBA000A64224D92568013521D0A588BD4218D0D8
:10CBB0002588002D15D01C60A5888542E5D12588E3
:10CBC0006545E2D10020A2680A601B684B60144BE7
:10CBD0001B890B811CBC90469946A246F0BD0520DE
:10CBE000F8E765880335AD006419A642DAD84C46EB
:10CBF0001C60444601250134A4B29C801032A84632
:10CC0000022CBDD10A20E5E734000834C4E7022035
:10CC1000E0E7C04658210020E8210020FFFF000087
:10CC20005C210020F0B5CE46474680B52C4B1B78E2
:10CC30009B0750D500291BD0002A19D093889C4609
:10CC4000012B13D81B01274F0433FF1800239846EC
:10CC5000254E3B1F1B78002B0FD063460124013368
:10CC60009BB293801037A446022BF2D10A2000E039
:10CC700005200CBC90469946F0BD136806E01C8860
:10CC8000002C16D013601C8884421BD03D68002BFA
:10CC900023D05C880334A4001B198024E400A1463F
:10CCA0004D449D420BD91C68013408D09C88B44285
:10CCB000E5D15C880334A4001B199D42F3D8434698
:10CCC0001360CAE79B6800200B6013684B60074B3A
:10CCD0001B890B81CDE70220CBE72B000833DCE773
:10CCE00058210020E8210020FFFF00005C210020E7
:10CCF000F0B5CE46474680B52C4B1B789B074FD5E9
:10CD000000291BD0002A19D093889C46012B13D8E8
:10CD10001B01274F0433FF1800239846254E3B1F65
:10CD20001B78002B0FD06346012401339BB2938004
:10CD30001037A446022BF2D10A2000E005200CBCDB
:10CD400090469946F0BD13683D68002B2AD05C8858
:10CD50000334A4001B198024E400A1464D449D42E5
:10CD60001BD91C68013418D09C88B4420FD01C8891
:10CD7000002C0CD013609C888442E5D19B68002075
:10CD80000B6013684B600C4B1B890B81D7E75C88E9
:10CD90000334A4001B199D42E3D843461360C2E745
:10CDA0000220CCE72B000833D5E7C04658210020ED
:10CDB000E8210020FFFF00005C210020002805D0B2
:10CDC000002903D0036800200B6070470520FCE7B2
:10CDD00029DF704728DF704770B52F4C86B0636E2F
:10CDE000002B29D0266E7500AB19DB00E3181A7AE8
:10CDF000012A2BD0022A21D01022002102A8FEF7FE
:10CE0000F9F9AB19DB00E3181A7A012A3BD0022AA0
:10CE100007D1012202A90A709A89DB894A81D31AB3
:10CE20000B81AD19ED0063195B6809210193039330
:10CE3000635902A89B68984706B070BD9889FFF7B0
:10CE4000C9FF112814D00028F6D0D5E79A8AD88ACD
:10CE5000121AFF2A14DC92B2AB19DB00E318D9686E
:10CE60001B69800009181818FFF7B2FF1128EAD1D2
:10CE700002210A4A13788B4304210B431370DBE72A
:10CE800080225200E8E7002202A90A701A699B8AF0
:10CE900004928B81C5E7C046202200201C2200207E
:10CEA000F0B5D6464F464646C0B52A4B5D696B1C69
:10CEB00003D180235B055D69AD02274B99461B7842
:10CEC0009846DB0740D4254B254C9C46E41A2409A0
:10CED00034D0A246210161441A68002A05D05A685C
:10CEE000501E82415046821A924610339942F3D125
:10CEF0005346002B22D00026F1B2634600220027C1
:10CF000003E00132103394420ED01868002802D09A
:10CF100058680028F5D1587B8742F2D2D1B201324D
:10CF2000070010339442F0D10B0163441A7B5D601B
:10CF30009202AD1A01361D605645DDD101234246ED
:10CF40001A4313004A46137000201CBC90469946B1
:10CF5000A246F0BD001000101C22002080200020FE
:10CF600090200020F8B54E4645465746DE46E0B5CF
:10CF7000314E9946337805000F0090460124DB07B7
:10CF80004BD5002850D02D4B98424DD32C4B984276
:10CF90004AD2131E4AD0002948D00B4305349B07C0
:10CFA0003BD103688B4243D84B4642689B00CB1869
:10CFB0009A423DD34B46023C002B2ED0214B9B4640
:10CFC0005B6E042B36D05A46126E9A18032A00D98B
:10CFD000043A594601334B6653009B18DB009A46CE
:10CFE0005C465444182220000021FEF703F90A9BF6
:10CFF000524663605B469D50012323724346E360C3
:10D000004B460622A3823378276100241A4204D1BA
:10D01000022213433370FFF7DFFE20003CBC904632
:10D020009946A246AB46F8BD0224F6E70324F4E78E
:10D030000524F2E70724F0E71C22002080200020CE
:10D040009020002020220020F8B54E464546574645
:10D05000DE46E0B52F4E9946337805000F00904626
:10D060000124DB0745D500284AD02B4B984247D3F3
:10D070002A4B984244D2002948D08B0544D10368FA
:10D080008B423FD893024268CB189A423AD3434628
:10D090000334002B2DD0224B5A6E9B46042A37D0E6
:10D0A0001B6ED318032B00D9043B5C00E418E4008A
:10D0B000A2465946DA4401324A66504618220021F7
:10D0C000FEF798F853464A465A605B4652461D5151
:10D0D0000223BF0A13729781534642461A820622E0
:10D0E000337800241A4204D1022213433370FFF72D
:10D0F00073FE20003CBC90469946A246AB46F8BD64
:10D100000224F6E70524F4E70624F2E70324F0E717
:10D110000724EEE71C220020802000209020002021
:10D1200020220020002804D0034B5B6E0360002007
:10D1300070470320FCE7C04620220020F0B54F4690
:10D140004646D646C0B5B44FB44C3B7884B0266E44
:10D150009A0747D5022800D1B2E0032800D0A9E001
:10D16000AF4A13780133DBB21370032B00D8A1E070
:10D170000023E946137000211022484675009846A6
:10D18000FEF738F8AB19DB00E3181A7A012A00D150
:10D1900003E1022A07D1494601220A709A89DB89F4
:10D1A0004A81D31A0B814946AB19DB00E218526859
:10D1B000E3584A6008219B6848469847636E5A1EA8
:10D1C0006266002A00D007E102213B788B433B7066
:10D1D000236E01332366042B35D1002300262366FA
:10D1E00023003AE00421626E194232D08B43002AB8
:10D1F00028D0022275001343AA19D200A2183B704E
:10D20000117AAB19DB00E31801292FD1D08AAB19B1
:10D21000DB00E3189A8A121AFF2A00DD7CE092B242
:10D22000AB19DB00E318D9681B69800009181818CE
:10D23000FFF7CEFD112800D06BE002223B7893432C
:10D24000042213433B7004B01CBC90469946A2468E
:10D25000F0BD7500AB19DB00E318002AF3D07500B0
:10D26000AA19D200A218117A0129CFD002294AD0D6
:10D27000E946102200214846FDF7BCFFAB19DB0050
:10D28000E3181A7A012A73D0022A07D149460122EB
:10D290000A709A89DB894A81D31A0B814946AB19F6
:10D2A000DB00E2185268E3584A609B68092148464F
:10D2B0009847C8E77500AB19DB00E318626ECCE74E
:10D2C00000239A465246564B75001A70AB19DB0084
:10D2D0009846A04443461B7A012B20D0022B02D053
:10D2E0004346626EB9E7434642469B8901339381C8
:10D2F000D38901339BB2D381128A9A4255D0636E8F
:10D30000002BA0D043469889FFF764FD112800D177
:10D3100093E7002897D0ABE78022520080E742468F
:10D320004346D08A9B8A1A1AFF2A2ADC4246D382B5
:10D33000E946102200214846FDF75CFFAB19DB00EF
:10D34000E3181A7A012A52D0022A07D1494601224B
:10D350000A709A89DB894A81D31A0B814946AB1935
:10D36000DB00E21852684A60E35800219B6823E71B
:10D37000002249460A704A4619699B8A9160938146
:10D380008CE742460130FF3080B2D0828342CFD05A
:10D39000636E002B00D03AE755E74A4641461170CC
:10D3A00019699B8A91609381FDE6E946102200216C
:10D3B0004846FDF71FFF43461B7A012B20D0022B66
:10D3C000CCD101234A461370434649469A89DB89EA
:10D3D0004A81D31A0B81C1E7236E5E1C2666042E98
:10D3E00000D1FAE67500AB19DB00E31838E700223C
:10D3F00049460A704A4619699B8A91609381ADE754
:10D400004B4652461A70424612699A6043464A4653
:10D410009B8A9381A2E7C0461C2200202022002084
:10D42000882200200848704502D1EFF3098009E006
:10D43000EFF308800549064A884201D8904201D896
:10D440008D460020034B1847FDFFFFFF00400020E2
:10D45000003E002075D40100BFF34F8F034B044AF8
:10D46000DA60BFF34F8FC046FDE7C04600ED00E035
:10D470000400FA0510B5FFF7EFFF10BD01230342CA
:10D4800017D14210134216D18210134215D1C21087
:10D49000134214D10211134213D14211134212D17B
:10D4A0008211134211D1C011094B013818400730C5
:10D4B00070470020FCE70120FAE70220F8E703208C
:10D4C000F6E70420F4E70520F2E70620F0E7C0467F
:10D4D000F8FF000010B500281AD0002918D00488E1
:10D4E000944223D04488944222D08488944221D00C
:10D4F000C488944220D0048994421FD04489944225
:10D500001ED08489944204D0C0890724904201D05F
:10D5100010BD06240122A2400878D2B2002B02D00E
:10D5200002430A70F4E790430870F1E70024F1E742
:10D530000124EFE70224EDE70324EBE70424E9E705
:10D540000524E7E7F0B5CE46474680B507AC257819
:10D55000002821D000291FD0002A1DD004889C4219
:10D5600000D1EAE044889C4200D1E8E084889C42F3
:10D5700000D1E6E0C4889C4200D1E4E004899C42EA
:10D580000ED044899C4200D1DFE084899C4200D1C6
:10D59000DDE0C08998426CD00CBC90469946F0BD45
:10D5A000042301249C40E4B2E6434B42F6B2002D32
:10D5B00061D103241C40E01C531E834200D2DAE0F8
:10D5C000002C00D1CEE00B7833400B70012C00D141
:10D5D000C5E04B7833404B70032C00D0C5E08B780E
:10D5E00033408B7003239946131B98469B089C4637
:10D5F0003302334330043506184328430700002321
:10D6000000250C19E05801353840E05004336545D9
:10D61000F8D303234046984303004846C71898456B
:10D62000BAD0C8190378334003707B1C9A42B3D92F
:10D63000CB18187830401870BB1C9342ACD2CB1872
:10D64000187830401870FB1C9A42A5D9CB1818786E
:10D65000304018703B1D9A429ED9CB181878053778
:10D6600030401870BA4297D9CF193B781E403E70AF
:10D6700092E7072395E703251D40E81C531E8342CC
:10D680007BD3002D68D00B7823430B70012D60D025
:10D690004B7823434B70032D6AD18B7823438B70D7
:10D6A00003239946531B98469B089C462302234319
:10D6B00020042606184330430700002300264D1996
:10D6C000E85801363843E8500433B445F8D803230A
:10D6D0004046984303004846C718984500D15BE789
:10D6E000C8190378234303707B1C9A4200D853E780
:10D6F000CB18187820431870BB1C9A4200D84BE70F
:10D70000CB18187820431870FB1C9A4200D843E7C6
:10D71000CB181878204318703B1D9A4200D83BE77D
:10D72000CB181878053720431870BA4200D833E771
:10D73000C9190B781C430C702EE7002331E7012335
:10D740002FE702232DE703232BE7052329E70623F1
:10D7500027E701239946A5E700239946A2E701237D
:10D76000994641E7002399463EE7022399463BE765
:10D770000223994696E7002753E70027B0E7C04603
:10D78000002819D00388934218D0438893421AD0B6
:10D79000838893421BD0C38893421AD00389934253
:10D7A00013D04389934216D08389934215D0C389FD
:10D7B0000020934213D070470020FCE7002319415A
:10D7C00001200840F7E70123F9E70423F7E70223E4
:10D7D000F5E70323F3E70523F1E70623EFE7072344
:10D7E000EDE7C04630B50023002935D0D40702D577
:10D7F0000B8883800123940704D55C004D880419AD
:10D80000A5800133540704D55C008D880419A580D8
:10D810000133140704D55C00CD880419A5800133B9
:10D82000D40604D55C000D890419A5800133940643
:10D8300004D55C004D890419A5800133540604D534
:10D840005C008D890419A5800133D21104D05A00DF
:10D85000C989821891800133036030BD0B7B002B96
:10D8600004D101220B680271036070474B680022EB
:10D87000F9E7C04610B50300046800798A680028FB
:10D8800006D04868011B91420AD9A018186006E02A
:10D890000868211A914207D8012218601A7110BD38
:10D8A000002218601A71FAE7A01A1860F7E7C0465C
:10D8B000072370B50400034201D09C43083401F0F3
:10D8C0006DF90C4A1368002B0DD00B4A0B491568F3
:10D8D0002C198C420CD8A5420AD25D19146001F0B3
:10D8E00013FA280070BD0721054B8B431360ECE74A
:10D8F0000025F4E78C22002090320020F70F000072
:10D90000982200207047C04603000122083343607C
:10D91000C360036100235242826003607047C046C7
:10D92000002303617047C04643684B609A688A6071
:10D930009A68516099600861036801330360704719
:10D94000020030B50C680832631C01D10DE01A00EA
:10D9500053681D68A542FAD94B6099608A6051608E
:10D96000086103680133036030BD02695368F3E75F
:10D9700042688168036991608268416851605A68B1
:10D98000824201D182685A60002202611A68501EE8
:10D99000186070470848006880F30888074B1968CA
:10D9A0000868203080F30988022080F314883FBC87
:10D9B000AE4662B600BDC04600B001009C320020F9
:10D9C0007047C046EFF309800D4B1A68203810608D
:10D9D000F0C044464D4656465F46F0C008B500F0DC
:10D9E000C3F80CBC116808681030F0C8A046A946FE
:10D9F000B246BB4680F309882038F0C81847C046B5
:10DA00009C32002030B5EFF3108572B6084B5A688F
:10DA1000002A08D18021013206485A604258064C3B
:10DA200022401A604450002D00D162B6FEE7C04685
:10DA3000683D002000E100E0FC06FFBC10B580243A
:10DA4000031F64041C60043B19600349043B196014
:10DA5000143B40381A6010BD05DA010010B50A4CBD
:10DA60000A4A236A1A40C0231B041343236200F0AE
:10DA7000EDF80022064B1A6023691032134323612C
:10DA8000FFF788FFFFF7BEFF00ED00E0FFFF00FF9C
:10DA900094320020084B1B68002B09D18022074BD1
:10DAA00052055A6040BFBFF34F8FBFF36F8F70476F
:10DAB0000122034B1A60FAE79432002000ED00E0E7
:10DAC0009832002030B5EFF3108272B60A4B5968D5
:10DAD000002908D180200131084C59602158084D97
:10DAE000294019602550002A00D162B6054A136802
:10DAF0000133136030BDC046683D002000E100E006
:10DB0000FC06FFBC9432002010B5124A1368013B9A
:10DB10001360002B12D1104A516800290FD10F4B0E
:10DB20001A68002A0AD000221A6080220C4B520583
:10DB30005A6040BFBFF34F8FBFF36F8F10BDEFF33D
:10DB4000108172B607481468046053600029E6D15A
:10DB500062B6E4E794320020683D0020983200204D
:10DB600000ED00E000E100E070B5EFF3108372B665
:10DB7000124C01256268002A08D180211048656096
:10DB80004258104D2A40226045500025002B00D1FC
:10DB900062B601F0B3F96368002B02D0EDB2002D3C
:10DBA00000D070BDEFF3108372B6054A2168116092
:10DBB0006560002BF5D162B6F3E7C046683D0020F2
:10DBC00000E100E0FC06FFBC00231A4A70B51360B8
:10DBD000194A1360EFF3108372B6184C012562687E
:10DBE000002A08D18021164865604258154D2A4008
:10DBF000226045500025002B00D162B600F0EAFFFC
:10DC0000002804D08022104B52055A6040BF636840
:10DC1000002B02D0EDB2002D00D070BDEFF31083C9
:10DC200072B6074A216811606560002BF5D162B6B3
:10DC3000F3E7C0460011014040110140683D00205B
:10DC400000E100E0FC06FFBC00ED00E010B50020A4
:10DC500001F020FEA12220210B4BD2009950C121BE
:10DC60000122C42089005A50084980000A601A60C5
:10DC7000074B08491A581140C02212020A431A5091
:10DC8000802292021A6010BD00100140081001406D
:10DC900000E100E0FF00FFFFF0B5C646050000B55B
:10DCA000EFF3108372B63D4C6268002A08D18021E0
:10DCB00001323B48626042583A4E32402260465040
:10DCC000002B00D162B6384A384BD65801F044FADE
:10DCD00000283CD0364B2F009D424CD8C220012159
:10DCE000314A800011508846A821F3191B021B0AF3
:10DCF000C900535000212F4B1960C12380219B0084
:10DD00004902D150BFF34F8F002D26D080222449E5
:10DD1000520020BF8B58002BFBD0C2228021224B07
:10DD20009200490299500021204A9858224A1160D5
:10DD3000C122013192009950864203D980235B04AD
:10DD40009C466044801BB84223D8002823D16368D6
:10DD5000002B12D104BC9046F0BD11501649134857
:10DD600010580D604146D1508642F0D980235B04A3
:10DD70009C466044E6E71F00B0E7EFF3108372B6FD
:10DD8000074A2168116000226260002BE2D162B66E
:10DD9000E0E7381EDBD000F015FFD8E7683D002033
:10DDA00000E100E0FC06FFBC00100140040500009B
:10DDB000FDFFFF00401101400011014070B5060059
:10DDC0000D1E09D048434D30FFF772FD041E29D0C7
:10DDD00003004C33036005E04C20FFF769FD041E8F
:10DDE00020D02460E6632564FFF76CFE216CE36BB2
:10DDF00022684B43D018606000205B1AD318E360A0
:10DE00000123A06320005B426364A260A36410301E
:10DE1000FFF77AFD20002430FFF776FDFFF774FE50
:10DE2000200070BD0024FBE7F0B5CE464746040055
:10DE30001D00002380B585B0019299468846FFF702
:10DE400041FEA36BE26B0027934200D281E0022DDA
:10DE500000D1F1E0019B002B00D114E1002F00D193
:10DE60008EE0FFF751FE00F099FEFFF72BFE636C8A
:10DE7000013301D14B466364A36C013301D14B469E
:10DE8000A364FFF741FE01A902A801F033F90028BD
:10DE900000D0FCE0FFF716FEA36BE26B934200D1CB
:10DEA00072E0FFF731FEFFF70DFEA36C002B1BDDC8
:10DEB000636A002B18D02700243708E0A36C013BCD
:10DEC000A364A36C002B0FDD636A002B0CD0380019
:10DED00001F0B4F80028F1D001F038F9A36C013B4F
:10DEE000A364A36C002BEFDC01235B42A364FFF768
:10DEF0000BFEFFF7E7FD636C002B1BDD2369002B96
:10DF000018D02700103708E0636C013B6364636C32
:10DF1000002B0FDD2369002B0CD0380001F08EF8A8
:10DF20000028F1D001F012F9636C013B6364636C6B
:10DF3000002BEFDC01235B426364FFF7E5FD00F09B
:10DF4000E3FE0127FFF7BEFDA36BE26B934200D314
:10DF50007DE7226C002A00D0E9E02568002D00D181
:10DF600005E1A36B0133A363636A002B00D080E05B
:10DF7000FFF7CAFD012005B00CBC90469946F0BDE4
:10DF800002A801F0ABF86CE727001037FFF7BCFDE3
:10DF90000199380000F0E8FFFFF794FDA36C002B17
:10DFA0001BDD636A002B18D02600243608E0A36C22
:10DFB000013BA364A36C002B0FDD636A002B0CD024
:10DFC000300001F03BF80028F1D001F0BFF8A36C5D
:10DFD000013BA364A36C002BEFDC01235B42A36431
:10DFE000FFF792FDFFF76EFD636C002B06DC15E07A
:10DFF000636C013B6364636C002B0FDD2369002BB2
:10E000000CD0380001F01AF80028F1D001F09EF889
:10E01000636C013B6364636C002BEFDC01235B42A8
:10E020006364FFF771FD00F06FFE002800D088E701
:10E03000FFF730FD012785E7226C002A00D18CE72D
:10E040004146E0680AF037FE236CE2685B422168D3
:10E05000D218E26091427CD9626894466344E360DE
:10E06000626A022D76D0A36B0133A363002A00D12C
:10E070007EE72000243000F0E1FF012800D077E7A0
:10E08000FFF708FD74E7FFF73FFD002073E7FFF798
:10E0900019FDA36C002B1BDD636A002B18D0250033
:10E0A000243508E0A36C013BA364A36C002B0FDDB7
:10E0B000636A002B0CD0280000F0C0FF0028F1D0CC
:10E0C00001F044F8A36C013BA364A36C002BEFDCCC
:10E0D00001235B42A364FFF717FDFFF7F3FC636CBA
:10E0E000002B1BDD2369002B18D02500103508E01C
:10E0F000636C013B6364636C002B0FDD2369002BB1
:10E100000CD0280000F09AFF0028F1D001F01EF892
:10E11000636C013B6364636C002BEFDC01235B42A7
:10E120006364FFF7F1FC00F0EFFD002023E74146B8
:10E13000002D2BD1A0680AF0BEFD226CA368944686
:10E1400062686344A360934200D20AE72368A36035
:10E1500007E7626AA36B002B85D0A36B013BA36327
:10E16000A36B0133A363002A00D101E781E7606854
:10E1700001F04AF8A36B65600133A363636A002B67
:10E1800000D076E7002800D07AE7F1E6E0680AF0F0
:10E1900092FD236CE2685B422168D218E2608A42F9
:10E1A00000D35DE758E7C046F0B54F464646D64631
:10E1B0000400C0B598461700EFF3108372B64A4DBD
:10E1C00001266A68002A0ED16E60484E803292465F
:10E1D000B2589146464A48469446104028606246E6
:10E1E000504632500026002B00D162B6A36BE26B82
:10E1F000934220D34346022B0BD000206B68002BA8
:10E2000002D0F6B2002E43D01CBC90469946A246DE
:10E21000F0BD226C002A22D123689846002B51D0F1
:10E22000A36B0133A363A36C01333CD0A36C013314
:10E23000A3640120E2E7226C002AEDD04346002BC4
:10E2400046D1A0680AF037FD226CA3689446626844
:10E250006344A3609342E3D32368A360E0E7E068EC
:10E260000AF029FD236CE2685B422168D218E26063
:10E270008A4206D2626894466344E3604346022BB6
:10E28000CED1A36B002BCBD0A36B013BA363C7E71D
:10E29000EFF3108372B6154A296811606E60002B87
:10E2A000B2D162B6B0E7636A002BC2D0200024303E
:10E2B00000F0C4FE0028BCD0002FBAD001230120FA
:10E2C0003B609BE7606800F09FFF43466360A7E701
:10E2D000E0680AF0F0FC236CE2685B422168D21827
:10E2E000E2608A42CAD2C5E7683D002000E100E052
:10E2F000FC06FFBCF8B50E00EFF3108372B6204C9D
:10E3000001256268002A08D1802165601D4D1E4FDD
:10E310006A583A4022606F500025002B00D162B647
:10E32000826BC16B00238A4209D2836B0133836302
:10E33000836C013316D0836C0133836401236268DC
:10E34000002A02D0EDB2002D01D01800F8BDEFF385
:10E35000108272B60B49206808606560002AF4D10B
:10E3600062B6F2E7436A002BE8D0243000F066FE84
:10E370000028E3D0002EE1D001233360DFE7C04660
:10E38000683D002000E100E0FC06FFBCF0B5D64689
:10E390004F4646460400C0B584B099468A4601926D
:10E3A000FFF790FBA36B002B00D0D9E0019B002B63
:10E3B00000D180E002A800F091FE00232500012793
:10E3C000984624357F42FFF79FFB00F0E7FBFFF7FD
:10E3D00079FB636C013301D143466364A36C013361
:10E3E00001D14346A364FFF78FFB01A902A800F007
:10E3F00081FE002800D0E1E0FFF764FBA36B002B57
:10E4000062D1FFF781FB2368002B00D1CEE0019998
:10E41000280000F0A9FDFFF755FBA36C002B06DCDC
:10E4200015E0A36C013BA364A36C002B0FDD636AB2
:10E43000002B0CD0280000F001FE0028F1D000F0E5
:10E4400085FEA36C013BA364A36C002BEFDCA764E7
:10E45000FFF75AFBFFF736FB636C002B1BDD2369CC
:10E46000002B18D02600103608E0636C013B636473
:10E47000636C002B0FDD2369002B0CD0300000F003
:10E48000DDFD0028F1D000F061FE636C013B6364A8
:10E49000636C002BEFDC6764FFF736FB00F034FCA5
:10E4A000002800D17FE0FFF70DFBA36B002B57D1B5
:10E4B000019B002B87D1FFF727FB002004B01CBC79
:10E4C00090469946A246F0BDFFF71EFBFFF7FAFA09
:10E4D000A36C002B06DC15E0A36C013BA364A36CCA
:10E4E000002B0FDD636A002B0CD0280000F0A6FD86
:10E4F0000028F1D000F02AFEA36C013BA364A36CBA
:10E50000002BEFDCA764FFF7FFFAFFF7DBFA636C81
:10E51000002B1BDD2369002B18D02600103608E0E5
:10E52000636C013B6364636C002B0FDD2369002B7C
:10E530000CD0300000F082FD0028F1D000F006FE83
:10E54000636C013B6364636C002BEFDC6764FFF773
:10E55000DBFA00F0D9FBFFF7B5FAA36B002BA7D0CD
:10E56000226CE568002A09D06368A918E160994225
:10E5700001D32168E16050460AF09DFB4B46002B19
:10E580006CD1A36B013BA3632368002B75D0236977
:10E59000002B67D02000103000F050FD012861D121
:10E5A000FFF778FA5EE0FFF775FA7CE7FFF78AFA83
:10E5B000606800F0F1FDFFF7A7FA28E7FFF782FA9D
:10E5C000A36C002B1BDD636A002B18D025002435BB
:10E5D00008E0A36C013BA364A36C002B0FDD636A0E
:10E5E000002B0CD0280000F029FD0028F1D000F00D
:10E5F000ADFDA36C013BA364A36C002BEFDC0123F6
:10E600005B42A364FFF780FAFFF75CFA636C002BB0
:10E610001BDD2369002B18D02500103508E0636C42
:10E62000013B6364636C002B0FDD2369002B0CD06E
:10E63000280000F003FD0028F1D000F087FD636C96
:10E64000013B6364636C002BEFDC01235B4263647A
:10E65000FFF75AFA00F058FB00202FE7636AE560E5
:10E66000002B03D1FFF750FA012027E720002430C8
:10E6700000F0E4FC0028F5D092E700F0EFFD6060C8
:10E6800085E7C046074B1A68002A03D09A68002A1B
:10E6900006D070470022D20099509B185860F8E7C6
:10E6A0000132F8E7703D002070B504000D00FFF75F
:10E6B00009FA636C013301D100236364A36C013355
:10E6C00001D10023A364FFF71FFAA36B002B04D131
:10E6D00020002900243000F081FCFFF7F3F9A36C3F
:10E6E000002B1BDD636A002B18D02500243508E0C1
:10E6F000A36C013BA364A36C002B0FDD636A002BAA
:10E700000CD0280000F09AFC0028F1D000F01EFD8B
:10E71000A36C013BA364A36C002BEFDC01235B42E1
:10E72000A364FFF7F1F9FFF7CDF9636C002B1BDD54
:10E730002369002B18D02500103508E0636C013BDD
:10E740006364636C002B0FDD2369002B0CD0280061
:10E7500000F074FC0028F1D000F0F8FC636C013B81
:10E760006364636C002BEFDC01235B426364FFF79F
:10E77000CBF970BDF8B5574645464E46DE46E0B586
:10E780000C9E07000D0090469A46002E00D19BE09B
:10E790004820FFF78DF8041E00D19EE043469B0001
:10E7A00098461A000663A5213000FCF723FD434676
:10E7B000181F236B2A789C460723604498432D3307
:10E7C000E2542B788046002B0ED035236A78E25431
:10E7D0006B78002B08D03623AA78E254AB78002B54
:10E7E00002D03723EA78E254372300220A9EE2540B
:10E7F000022E55D80023251DE3632800E662A66398
:10E800009B46FFF78DF820001830FFF789F80323A7
:10E810009B1BA3615B465A462364443324616462B4
:10E820003900E25440465246FFF708F90B9B20603E
:10E83000002B00D01C60FFF745F93D4A3D4F13689F
:10E84000013313603B68002B33D03B4B98461B6869
:10E85000002B27D0394E3A4A136801331360394AE6
:10E86000E36A11688B4219D89800C01880003018EC
:10E870002900FFF759F8FFF747F943461B680124C1
:10E88000002B04D03B680A9ADB6A934219D320001C
:10E890003CBC90469946A246AB46F8BD1360E3E700
:10E8A0000226A7E73B680A9ADB6A9342D2D83C600B
:10E8B000D0E73C601368214E012B14D01E4B9846C4
:10E8C000C9E7FFF7E7F8E2E79000FEF7F1FF061E61
:10E8D00000D05DE701246442D9E701243000FFF74E
:10E8E00011F86442D3E73000FFF70EF8300014301F
:10E8F000FFF70AF830002830FFF706F8124B994668
:10E900001800FFF701F8114B18009846FEF7FCFFBE
:10E910000F48FEF7F9FF0F48FEF7F6FF0E48FEF727
:10E92000F3FF4A460D4B1A6042460D4B1A60C5E78D
:10E93000E43200209C32002040330020A832002026
:10E94000F0320020F8320020FC320020103300208A
:10E950002C3300205833002044330020A032002004
:10E96000A432002070B5041E0BD0164D2B688342D4
:10E9700007D0FFF7A7F8144B62699A4202D0FFF75D
:10E98000C3F870BDA36A114A9342F8D0002BF6D1A8
:10E99000261D3000FEF7ECFF0D4AE36A11688B423A
:10E9A00000D913609800C0180A4B80001818310075
:10E9B000FEF7BAFF2B68E26ADB6A9A42DFD3FFF701
:10E9C00069F8DCE79C320020443300202C3300201F
:10E9D000F8320020A8320020F8B5CE464746F02095
:10E9E00080B5FEF765FF051E57D04820FEF760FF93
:10E9F000041E00D180E0F022A52105632800FCF769
:10EA0000F9FB07230026256B271DEC359D434F4B53
:10EA1000E6626363A663E6633800FEF781FF2000C9
:10EA20001830FEF77DFF0323A361413326640022E3
:10EA3000246164624649E6542800FEF7FFFF454B17
:10EA400020601C60FFF73EF8434A444E13680133D0
:10EA500013603368002B47D0414B98461B68002B4E
:10EA600021D0404D404A1368013313603F4AE36AA6
:10EA700011688B4215D89800C018800028183900FA
:10EA8000FEF752FFFFF740F843461B68002B00D00B
:10EA9000336800F05FFD01280BD00CBC904699460E
:10EAA000F8BD1360E7E73368DB6A002BD9D1346027
:10EAB000D7E7EFF3108272B62D4B5968002907D1C2
:10EAC0002C4C58607F3021582B4D2940196025501F
:10EAD000002A00D162B64246012313600022274B70
:10EAE0001A60FEF7BBFFD8E7346013681D4D012B99
:10EAF00006D01B4B9846B5E72800FEF703FFCCE78E
:10EB00002800FEF701FF28001430FEF7FDFE280064
:10EB10002830FEF7F9FE1A4B99461800FEF7F4FE6E
:10EB2000184B18009846FEF7EFFE1748FEF7ECFE6C
:10EB30001648FEF7E9FE1648FEF7E6FE4A46154B74
:10EB40001A604246144B1A60D3E7C04649444C0051
:10EB500019EE010024330020E43200209C32002012
:10EB600040330020A8320020F0320020F83200208C
:10EB7000683D002000E100E0FC06FFBC6C33002093
:10EB8000FC320020103300202C33002058330020AA
:10EB900044330020A0320020A4320020024A13682F
:10EBA000013313607047C046EC320020014B1868F7
:10EBB0007047C0466C330020014B18687047C04650
:10EBC0006C330020024A1368181810607047C04662
:10EBD0006C330020F8B5DE4657464E464546E0B554
:10EBE0003E4B1B68002B47D13D4B1A6801321A601F
:10EBF0001B689846002B50D03A4B9B465B461B68DF
:10EC0000002743453DD8384B384D9946384B9A46F6
:10EC10002B681B68002B2BD02B68DB68DC686368D3
:10EC2000984557D3261D3000FEF7A2FEA36A002B9D
:10EC300003D020001830FEF79BFE4A46E36A1268B4
:10EC4000934201D94A4613609800C018294B8000AE
:10EC50009C4631006044FEF767FE53461B68E26A3B
:10EC6000DB6A9A42D4D32B6801271B68002BD3D1CF
:10EC70005A46013B136004E000271F4A1368013322
:10EC800013601E4B1B68002B00D0012738003CBCD2
:10EC900090469946A246AB46F8BD144D184B2A68DB
:10ECA000196829601A60174A1368013313602B68CA
:10ECB0001B68002B06D10B4B9B4601235A465B4237
:10ECC00013609BE72B68074ADB689346DB685B6849
:10ECD000136093E75A461360D3E7C046EC32002036
:10ECE0006C33002048200020F8320020A0320020A1
:10ECF0009C320020A8320020E8320020703300202F
:10ED0000A432002028330020F8B5DE4657464E4690
:10ED10004546E0B5FEF7D6FE374B1A68013A1A6051
:10ED20001B68002B49D1354B1B68002B45D0344B59
:10ED3000344E9B46344B354F9846354BC1469A4628
:10ED40003368002B21D0F368DC682000251D1830C3
:10ED5000FEF70EFE2800FEF70BFEE06A3B689842C5
:10ED600035D9830038601818800048442900FEF720
:10ED7000DBFD274BE26A1B68DB6A9A42E0D3012382
:10ED80005A4613603368002BDDD1224C2368002BD8
:10ED90000FD023680125002B0BD0FFF71BFF0028A5
:10EDA00001D05B461D602368013B23602368002B74
:10EDB000F3D15B461B68012B1AD00024FEF7A4FE9A
:10EDC00020003CBC90469946A246AB46F8BD830065
:10EDD0001818800040442900FEF7A6FD53461B6822
:10EDE000E26ADB6A9A42ABD301235A461360C9E751
:10EDF000FEF750FE0124E1E7EC320020E43200206F
:10EE0000703300202C330020A8320020F83200207C
:10EE10009C320020E8320020F8B557464E46DE46C8
:10EE200045462E4BE0B598462D4B2E4C99462E4B21
:10EE30002E4F9A462E4B2F4E9B4607E023683D6887
:10EE400001332360FFF760FF002D2ED13368002BC4
:10EE5000F4D14B461B68012B01D9FEF71BFE02F0D3
:10EE600095FA53461B68DB6A002BEFD14B461B68B3
:10EE7000012BEBD85B46204A1B6812689B1A012BBA
:10EE8000E4D923680133236053461B68DB6A002BF7
:10EE900008D15B461868184B1B68C01A012801D9B5
:10EEA000FEF7FAFEFFF730FFD0E7FEF70BFEFB6838
:10EEB000DD68281DFEF75CFD434642461B68013BAA
:10EEC00013603368013B3360FEF71EFE286BFEF7CC
:10EED00019FD2800FEF716FDB8E7C046E432002011
:10EEE000A8320020EC3200209C3200205833002051
:10EEF00048200020F43200206C330020154B1B68A2
:10EF0000002B1FD1144A15481360154A116803E0FD
:10EF10001368013B136011688B005B189B00C3589A
:10EF2000002BF5D0126893009B189B00C1184A680B
:10EF300008335268C0184A60824207D0D268094B31
:10EF40001A6070470122044B1A60FAE752684A605F
:10EF5000F4E7C046EC32002070330020A8320020D5
:10EF6000F83200209C32002070B50D00154C21684D
:10EF70001831FEF7E5FC20680430FEF7F9FC6B1C45
:10EF80001AD0114B1A68551922681B6855609D42AA
:10EF90000BD30E4B186821680431FEF7D1FC0C4BE3
:10EFA0001A68954200D21D6070BD0A4B186821682E
:10EFB0000431FEF7C5FCF7E7216807480431FEF786
:10EFC000B3FCF1E79C3200206C330020A03200201B
:10EFD00048200020A43200204433002070B50E00E9
:10EFE000114D29681831FEF79FFC28680430FEF7A0
:10EFF000BFFC0E4B1C682A681B68A41954609C4215
:10F000000BD30B4B186829680431FEF799FC094BA8
:10F010001A68944200D21C6070BD074B18682968BA
:10F020000431FEF78DFCF7E79C3200206C330020A2
:10F03000A032002048200020A432002070B5C36810
:10F04000DC68250018352800FEF792FC1B4B1B6876
:10F05000002B24D1251D2800FEF78AFC184AE36AFC
:10F0600011688B4220D89800C018164B80001818E1
:10F070002900FEF759FC144BE26A1B680020DB6A8A
:10F080009A4203D90122114B01301A60104B1A68C1
:10F090001268002A0AD10F4B013A1A6070BD29008C
:10F0A0000D48FEF741FCE6E71360DCE71B68DB6810
:10F0B000DB685A68074B1A60F0E7C046EC32002064
:10F0C000F8320020A83200209C320020703300204B
:10F0D000A0320020482000202C330020034B1B6866
:10F0E0000360034B1B6843607047C0462833002011
:10F0F0006C330020F8B50E000400FEF7E3FC114964
:10F1000032680868531C1AD00F4B27681D689C464C
:10F110006368AF4202D0012598420CD2C71A01257C
:10F12000BA4208D91B1A9B183360634600251B6836
:10F1300023600B686360FEF7E7FC2800F8BD00253C
:10F14000F9E7C0466C330020283300200122014B30
:10F150001A60704770330020054B00201B68002B9D
:10F1600004D1044B186843425841C0B27047C046AE
:10F170002C33002070330020054B01201B68002B2E
:10F1800004D0044B18684342584140007047C046C1
:10F1900040330020EC320020F8B5041E18D0174D83
:10F1A000C26A2B68DB6A9A4212D28369002B04DBA5
:10F1B0002B68D96A03235B1A836193009B18104E56
:10F1C0009B006269F3189A4203D02B68DB6AE36202
:10F1D000F8BD271D3800FEF7CBFB2B68094ADB6A18
:10F1E0001168E3628B4200D913609800C018800058
:10F1F00030183900FEF798FBEAE7C0469C32002041
:10F20000A8320020F832002070B5041E08D0C36B6D
:10F21000C26A816B013BC3638A4201D0002B01D0DB
:10F22000002070BD051D2800FEF7A2FB0323A06B84
:10F230001B1AA361074BE0621A68904200D918605C
:10F2400083001818044B800018182900FEF76CFB87
:10F250000120E6E7F8320020A8320020044B1A68AB
:10F26000002A03D01968CA6B0132CA631868704754
:10F270009C320020F0B55746DE464E464546B14B1F
:10F28000E0B59A46B04BB14F9B46B14E8BB03B6850
:10F290001A68002A00D192E0DB681C68FFF77EFC48
:10F2A000FFF784FC53461B68814683425BD8534674
:10F2B0001860844200D8B7E04B463068E11AFFF787
:10F2C000F3F9FFF721FD00285CD03068002300220D
:10F2D00002A9FFF75BF80028D9D0029B049C009399
:10F2E000002B0BDA059B20000093039B00990193F0
:10F2F0009847029B0093002BE7DB049C6369002B7B
:10F3000002D0201DFEF734FBFFF750FC53461B686C
:10F3100002000090984247D353461A60029B092B83
:10F32000D3D801229A40130084229200134200D0C5
:10F33000D1E04A3AFF3A1A4200D0A2E09B06C4D577
:10F340002000FEF7DFFA3068C0E7DB68DC681A6887
:10F35000251D28009046FEF70BFB636A20009847A6
:10F36000E369012B39D03B681A68002AEDD15A466F
:10F3700012683A605A46136053464A461A60FFF7CD
:10F38000C3FCA2E7FEF786FB9FE7DB68DD681A682F
:10F390002B1D180091469846FEF7EAFA6B6A280082
:10F3A0009847EB69012B23D03B681A68002AECD1FF
:10F3B0005A4612683A605A461360009AACE7FFF763
:10F3C000EDFBFFF7F3FB53461B6881469842CAD317
:10F3D00053464A4600241A606EE7A36943449845A1
:10F3E00011D26360246129003868FEF7A9FABAE7F0
:10F3F000AB694B44994528D26B602D614146386812
:10F40000FEF79EFAD0E73368002BACD000230693BA
:10F41000434608940793FFF7AFFE0023002206A996
:10F420003068FEF701FD9EE7FFF76EFC3B68DB6886
:10F43000DD682B1D18009846FEF79AFAEB69012B40
:10F4400014D06B6A280098473FE73368002BABD095
:10F45000002306934B4608950793FFF78DFE002384
:10F46000002206A93068FEF7DFFC9DE7AA692D613E
:10F47000A3186B604B454AD941463868FEF760FADD
:10F48000DFE7039BA16900985A18626024618242F9
:10F4900033D8C31A994229D82000636A9847E36990
:10F4A0003068012B00D011E7002800D10EE70022C0
:10F4B000039B0093A3690692009A089494466344C0
:10F4C0000793FFF759FE0023002206A93068FEF7D4
:10F4D000ABFC3068FAE6039B0099A3615A1862609E
:10F4E00024618A420DD8002B00D1EEE65B46211D37
:10F4F0001868FEF725FA3068E8E6834201D993429E
:10F50000CAD93868211DFEF71BFA3068DEE64B4683
:10F51000191B8A420FD83368002B92D0002307941E
:10F5200006930895FFF728FE0023002206A93068FD
:10F53000FEF77AFC85E75B4641461868FEF700FA5D
:10F540007FE7C046A43300207833002074330020C6
:10F55000A833002070B584B0FEF7B4FA174C2368C6
:10F56000002B13D0FEF7D0FA23680020002B0BD01D
:10F57000134B039001930223029000935022002327
:10F5800010491148FFF7F6F804B070BD0F4E300077
:10F59000FEF7BAF90E4D2800FEF7B6F90D4B002222
:10F5A0001E600D4B102120201D60FEF707FC20601F
:10F5B0000028D7D00949FFF765F8D3E7A833002022
:10F5C000AC330020208E020075F201007C33002055
:10F5D000903300207433002078330020188E02000E
:10F5E000F8B5454657464E46DE468046E0B50D0026
:10F5F00017001E00002918D02820FEF759F9041E14
:10F6000013D0FEF75FFA1B4B99461B68002B14D0F2
:10F61000FEF77AFA434623600A9BA561E7612662FA
:10F620006362201DFEF77CF900E0002420003CBC52
:10F6300090469946A246AB46F8BD0F4B9B46180034
:10F64000FEF762F90D4B18009A46FEF75DF95A462F
:10F650000B4B10211A6052460A4B20201A600022E0
:10F66000FEF7ACFB4B4618600028D1D00649FFF7E7
:10F6700009F8CDE7A83300207C3300209033002028
:10F680007433002078330020188E020070B5134DBB
:10F6900084B02C681E00002C17D0009101920290BB
:10F6A00005290ADCFFF768FD022810D0286800232E
:10F6B00000226946FEF7B8FB05E0002332006946E8
:10F6C0002000FEF771FD04B070BD0020FBE7286844
:10F6D0000023089A6946FEF7A7FBF4E7A833002049
:10F6E00010B50400FEF7EEF96469631E9C41FEF755
:10F6F0000BFA200010BDC04610B50400FEF7E2F979
:10F70000246AFEF701FA200010BDC046A022044B77
:10F71000D205D358034A125C0120D34018407047E9
:10F72000040500002C8E0200044BA0211A5C01236A
:10F730009340A122C905D2008B5070472C8E020045
:10F74000044BA0211A5C01239340034AC9058B5046
:10F750007047C0462C8E02000C050000A0228021BC
:10F76000054BD2058901D1508021C901D15080219A
:10F770000902D1507047C0460C050000A022A12309
:10F780008021D205DB008901D1508021C901D150EF
:10F7900080210902D1507047A02210B5074BD20535
:10F7A000D158074B185C012383401C00A1208C43D7
:10F7B0000B400449C0001450535010BD0405000014
:10F7C0002C8E02000C050000A02303220849DB0553
:10F7D0005A5004315A5007495A508021064A89012B
:10F7E00099508021C9019950802109029950704790
:10F7F000340700003C0700000C050000A022A223F3
:10F80000D205DB00D358034A125C0120D340984351
:10F810007047C046288E0200112807D01A3843428C
:10F820005841022340421840013870470020FCE74D
:10F83000014B185C7047C046288E020010B5134C6F
:10F840002378002B1FD16360A3602361E360104B1A
:10F850001B68DB070ED509F001F8002803D001234F
:10F860000020237010BD8022A3230121D205DB00DC
:10F87000D150F4E70321002000F0DEF808F0EEFF9D
:10F880000028ECD1EFE78520ECE7C046B03300203C
:10F8900000E100E070B5234C82B0A3780500DBB234
:10F8A000002B13D0002802D04368012098476B46F4
:10F8B000DD1D002328002B70FBF7A0FEE3682878ED
:10F8C0000133E360FBF7BAFE02B070BD6A46D61D95
:10F8D00030003370FBF792FE002D0DD02269002A14
:10F8E00008D0954208D0130001E09D4204D01B6867
:10F8F000002BFAD12A602561E368002B0AD10A4A5D
:10F9000002211360C123053AFF3A9B00D150012226
:10F91000064B1A60E36830780133E360FBF78EFE34
:10F92000D2E7C046B0330020040100400800004088
:10F9300010B51A4B1A68002A14D0002280211A60D0
:10F94000C2220123164CC90592008B506370A36834
:10F95000002B07D01A6800205B68A2609847A36854
:10F96000002BF7D10F4B1A68002A15D000221A601D
:10F970008022C22302219B00D205D1500123084CD2
:10F98000A3702369002B07D01A6801205B682261ED
:10F9900098472369002BF7D110BDC04600010040F5
:10F9A000B03300200401004010B500280BD1064CF4
:10F9B000A368002B07D01A6800205B68A2609847F4
:10F9C000A368002BF7D110BDB033002030B583B051
:10F9D0006B46DD1D002328002B70FBF70FFE144C37
:10F9E0002378002B09D0E36828780133E3600123F2
:10F9F000A370FBF723FE03B030BD6360A3602361F7
:10FA0000E3600C4B1B68DB070CD508F027FF0028D0
:10FA100005D18022A3230121D205DB00D15001238F
:10FA20002370E0E70321002000F006F8EDE7C04670
:10FA3000B033002000E100E0FF22032330B51400C2
:10FA4000C5B22B40DB009C4089010A40E4439A4048
:10FA5000002814DB104B80089C46C02380006044C3
:10FA60009B00C1580C402243C2501F23C0211D409F
:10FA70001E3BAB40084A49005350136030BD0F2372
:10FA800006492B408C46083B9B089B006344D96980
:10FA90000C402243DA61E8E700E100E000ED00E01D
:10FAA00070B54425144C665D002E22D101235B42C3
:10FAB00023606360A360E36023616361A361E3612A
:10FAC00023626362A362E36223636363A363E3630A
:10FAD000236403210620FFF7AFFF084B80211E603F
:10FAE000C123074A9B000906D1500123002063551A
:10FAF00070BD0820FCE7C046C43300207C61004094
:10FB0000006000404423034AD05C431E9841C0B2C9
:10FB10007047C046C4330020F0B5CE46474680B596
:10FB2000584B91461D1820352E7808247F2E3DD93C
:10FB3000CF78002F3FD11A69013200D199E0052416
:10FB40000826A5005A5901325AD0621C95009446E5
:10FB50005A59013200D18AE0A21C9446B24224D202
:10FB600095005A59013200D181E0E21C9446B2421C
:10FB70001BD295005A59013200D178E0221D9446DB
:10FB8000B24212D295005A59013200D16FE0651D80
:10FB9000B5420AD2AA009A58013200D16FE0063469
:10FBA000B44202D2DA69013228D0042420000CBC0D
:10FBB00090469946F0BD1A68012404260132C0D14E
:10FBC00000264A462E701A608A78002A2AD0A0247D
:10FBD000E405A446E025022782006244ED00545962
:10FBE000BC4354510A78C978002928D19B193C3369
:10FBF000197892010A431A700024D7E707241C25BC
:10FC00001A18944620229046C444624666B2167082
:10FC10004A465A51002FD7D11C193C3420708A789B
:10FC2000002AD4D10200A0254C78C132FF329200C4
:10FC3000A400ED0554510A78C9780029D6D012499C
:10FC4000B3008C46A2216344C9005C580F4D0002EA
:10FC50002C40F8256D012840C0255C501204AD02EF
:10FC60005C582A4010432043585000249EE76446C5
:10FC7000C6E704244A462C701A610426CCE72C00FF
:10FC8000AD00BDE7C433002000600040FFE0FCFF92
:10FC90000023F0B52A4C22182032D356032B1FDD47
:10FCA000E3183C331B789B09032B3AD0013B5A1EC7
:10FCB000934180225B42520213408022920294467A
:10FCC0006344A022D2059446E02280006044D20022
:10FCD00081581C4C2140815081580B438350F0BD0A
:10FCE000D8B20328FBD8184DA227AC4601269800AD
:10FCF0006044FF00C5593543C551180065460027CB
:10FD00004030800080B247510029E8D0127852B2CA
:10FD100092001259002AE2D09E40C1239B00EE506F
:10FD2000DDE7A022A223D205DB00D2580123C24086
:10FD30001340C02292029446013B1B046344C0E777
:10FD4000C4330020FFFFFCFF00600040A022A2237C
:10FD5000D205DB00D358C340012018407047C0468D
:10FD6000F0B5DE4657464E4645460021E0B5CB4A43
:10FD700087B0039113680024012B00D148E1C84BE0
:10FD80001A68012A00D150E1C64B1A68012A00D135
:10FD90005BE1C54B1A68012A0FD0C44B1B68012BCD
:10FDA00000D15EE1230717D1002C34DB07B03CBC47
:10FDB00090469946A246AB46F0BDC122BC4992008E
:10FDC000895808220A42E8D000211960B74B144331
:10FDD0001B68012B00D144E11F239946B54BA22794
:10FDE000012600259846FF0026420ED04946B04A1B
:10FDF000AB009A18D059000A0840D1594246D3584E
:10FE00008903890F002B00D0984701357600042D17
:10FE1000EAD1002CCADA00230493013B0593413355
:10FE20009846C026A34C4346E1564B1C2CD00723D2
:10FE30000127C9B208000B409F40B043C20805AB80
:10FE40009B5C1F4220D0231820331B7889095BB2AA
:10FE50009B00E3589B46002B00D16CE1032900D1A5
:10FE60006CE1A025ED05A94683009944E0234D46A9
:10FE7000DB00EB5803ADAA5C9B039B0F174200D03D
:10FE800027E1032B00D16DE100274123E1564B1CF4
:10FE900037D007230125C9B20B409D4008002B0035
:10FEA000B043C20805ADAD5C2B422AD02518AC4644
:10FEB0002025A946CC4465462D7889096DB2AD0050
:10FEC00065590191A946002D00D126E1032900D1F1
:10FED00026E18500AA46A025ED05AC46E025ED000B
:10FEE000E244AC465546614669588903890F8C4601
:10FEF00003A98A5C134200D0F2E06346032B00D1D1
:10FF000079E14223E1564B1C37D007230125C9B2C2
:10FF10000B409D4008002B00B043C20805ADAD5C0E
:10FF20002B422AD02518AC462025A946CC4465464C
:10FF30002D7889096DB2AD0065590191A946002D52
:10FF400000D101E1032900D101E18500AA46A025E5
:10FF5000ED05AC46E025ED00E244AC465546614671
:10FF600069588903890F8C4603A98A5C134200D023
:10FF700084E06346032B00D126E14323E1564B1C6A
:10FF800036D007230125C9B20B409D4008002B0045
:10FF9000B043C20805ADAD5C2B4229D02518AC4654
:10FFA0002025A946CC4465462D7889096DB2AD005F
:10FFB00065590191A946002D00D1A0E0032900D187
:10FFC000A0E08500AA46A025ED05AC46E025ED00A1
:10FFD000E244AC465546614669588903890F8C4610
:10FFE00003A98A5C134267D16346032B00D1D2E098
:10FFF000002F00D1DAE6A022A223D205DB00D358DD
:020000022000DC
:10000000039A934200D1D1E60393049B05930AE738
:10001000C120274C800024581C4000D1AFE6204B63
:1000200011601A68012A00D0AEE6C1222049920070
:10003000895802220A4200D1A6E600211960194B14
:1000400014431A68012A00D0A3E6C122184992007D
:10005000895804220A4200D19BE60021144319600A
:1000600097E60022114B1A6080231B061C43A02236
:10007000A223D205DB00D358039393E66346022BF9
:1000800000D07AE7019B032B00D1D3E04B46002B35
:1000900000D172E70199C8476FE7C0460061004090
:1000A00004610040086100400C6100407C61004038
:1000B00000600040C43300206346022B98D1019BAE
:1000C000032B00D1AEE04B46002B91D00199C847DD
:1000D0008EE7022B00D0D7E6032959D0002751E044
:1000E0006346022B00D00CE7019B032B00D19DE05F
:1000F0004B46002B00D104E70199C84701E70329CB
:1001000000D075E704A98C469444614609781943E8
:100110008A46614655460D7053E7032900D0F0E644
:1001200004A98C4694446146097819438A4661467D
:1001300055460D70CDE6032900D0A5E604AB9B180B
:100140001D783D431D708CE6032900D015E704A9F6
:100150008C4694446146097819438A46614655465F
:100160000D70F2E60329B9D180229202E0234D46B8
:10017000DB00EF58314D2F404D46EF50EF581743FD
:10018000EF5001275B46002B00D17EE6D8477CE686
:10019000C0229202EAE7019B032B94D180239B02A9
:1001A0009C46E0235246DB00D258244901370A40DE
:1001B0005146CA50CA5861460A435146CA504B4636
:1001C000FFB2002B82D116E7019B032B00D05DE725
:1001D00080239B029C46E0235246DB00D2581749FD
:1001E00001370A405146CA50CA5861460A4351462F
:1001F000FFB2CA504AE7019B032B00D078E7802367
:100200009B029C46E0235246DB00D2580B49013743
:100210000A405146CA50CA5861460A435146FFB285
:10022000CA5065E7C0239B029C46BAE7C0239B02E5
:100230009C46E7E7C0239B029C46CCE7FFFFFCFF00
:10024000C12330B5614A9B00D35885B09B055ED56C
:1002500092235B00D158002959D00021D15081212F
:10026000E533FF338900D150594B997E002901D1E4
:1002700001315160022269460A7090215348C90039
:100280004258425069460392DA7D68460A72DA683B
:10029000196801920022DA751A765B6898478E21F8
:1002A0004A4A49005358002B12D0494B9C8A987DEA
:1002B000844257D300245450002809D06A46107253
:1002C00014709A689C75196801925B686846984733
:1002D000A2233E4A5B00D158002916D00021D150FC
:1002E0003B4B997E002901D001211160DA7D002A63
:1002F0000BD0002268460121DA755A7E0170027225
:10030000DA68196801925B68984705B030BDC1236F
:100310002E4A9B00D3585B07C1D58421490053580E
:10032000002BBCD02A4BD87D002827D15050A321C8
:10033000C90052585A7E8242B1D11A7E1968002AE9
:100340002AD0DA751A69D868DA6000226D465C7EB8
:100350001A765A76013201902A702C725B686846D0
:1003600098479CE700205050998A9868405C998A89
:10037000013189B29982174BD050A9E70020505023
:10038000A320C000597E1258D86842545A7ED87DA6
:100390000132D2B25A76CDE79A7E002A02D10120EC
:1003A0000A4A5060C222812408489200A400845066
:1003B00000226C460120DA755A7E20702272DA68BB
:1003C000684601925B68984769E7C0460020004094
:1003D0000C3400201C05000010B50220FFF7DCF9EA
:1003E00010BDC046F8B5CE46474680B505000E00A4
:1003F000FFF712FA0400012803D90CBC9046994675
:10040000F8BD012E1ED0002E0FD0022EF5D14300D4
:100410001C4C1B18E4186678002EEED01A4B1B6893
:10042000002BEAD030009847E7E71848FBF7AEF812
:100430006200144B12199B189E78154B1B5DB3423A
:10044000DBD1E9E70F4F430098461B18FE5CFB1811
:100450005B78002B06D143461B19FF18BA780C4B6A
:100460001A55D9E70B4B094899460B4B4A461B686E
:100470009900C9184900FBF715F80028EBD14B4645
:100480001D70E8E770340020A034002050340020B4
:10049000A8340020283400204C34002070B5764B5E
:1004A0001B68DB0700D470BD744E754D33782C7813
:1004B000002B05D1172CF6D8724AA300D3589F46BB
:1004C00000233370FFF74AF9F4E70123012033706A
:1004D000FFF762F96C4B00221B686C489900C91841
:1004E000FAF7E0FFDFE7012301203370FFF754F94B
:1004F000654B002219686548FAF7D4FFD3E7FFF788
:100500003DF92C70CFE7FFF739F90C232B70CAE7C0
:100510005F4D2800FBF73AF811231C1B00D18DE03A
:10052000002800D08AE0012C0BD0C8306421604341
:1005300008F03CFA544B0022196841432800FAF7AE
:10054000B1FF0220FFF7F0F8ADE7FFF707F912233C
:100550002B70A8E7FFF702F90020FFF7E5F8132357
:100560002B70A0E7FFF7FAF80120FFF7DDF814235E
:100570002B7098E7FFF7F2F80020FFF7D5F801207D
:10058000FFF7D2F815232B708DE70020FFF7CCF88A
:1005900007232B7087E70020FFF7B8F8002857D013
:1005A0000020FFF7CDF805232B70374B0022196888
:1005B00036484900FAF776FF75E70020FFF7ECF8B8
:1005C00006232B7094E7FFF7C9F800232B706AE726
:1005D0000020FFF79BF8002843D00020FFF7B0F879
:1005E000A11E4B1E99414B42162119401231264B38
:1005F00000221B68254859432C70FAF753FF52E735
:100600000020FFF783F800281CD00020FFF798F89F
:100610000822032309E00020FFF778F800281BD008
:100620000020FFF78DF8282204232B70164B174863
:10063000196851430022FAF735FF34E70220FFF72B
:100640007FF830E70020FFF76FF802220323ECE782
:100650000020FFF769F8A6E70020FFF765F80422FD
:10066000E2E70020FFF760F8A11E4B1E99414B42C4
:10067000022119400231BAE7783400207C3400208E
:10068000A4340020308E02004C340020803400203E
:100690002C34002010B50078FFF7BEF8012800D9EF
:1006A00010BD43001B180548C01840780028F7D03B
:1006B000034B1B68002BF3D09847F1E77034002000
:1006C000A034002010B5FFF799F810BD70B5864B27
:1006D00005001B680024DB0701D4200070BD834E99
:1006E0003378002B06D1172D00D9FAE0804AAB00F1
:1006F000D3589F463470FFF731F8F4E70123012007
:100700003370FFF749F87B4B00221B687A48990049
:10071000C918FAF7C7FE0400DFE701230120337090
:10072000FFF73AF8734B002219687348FAF7BAFEDC
:100730000400D2E70020FEF7F7FF07226F4B0024EA
:100740001A70CAE70020FEF7E1FF002800D1AFE0F1
:100750000020FEF7F5FF0522684B67481A70654BCD
:10076000002219684900FAF79DFE0400B5E7002051
:10077000FFF712F80622614B1A70D3E7FEF7EEFF7F
:1007800000225E4B00241A70A7E70020FEF7BEFF90
:10079000002800D195E00020FEF7D2FFA91E4B1ED5
:1007A00099414B42162119401231544B00221D70C1
:1007B000504B51481B685943FAF774FE04008CE70C
:1007C0000020FEF7A3FF002800D185E00020FEF7FF
:1007D000B7FF08200322494B1A70464B00221968C4
:1007E00041434548FAF75EFE040076E70020FEF735
:1007F0008DFF002860D00020FEF7A2FF28203F4B8D
:100800000422E9E7FEF7AAFF0020FEF78DFF012092
:10081000FEF78AFF1522394B00241A705DE7384E27
:100820003000FAF7B3FE04001120451B3CD0002C29
:100830003AD1012D0CD0B7306421684308F0B6F8E6
:100840002C4B0022196841433000FAF72BFE0400BC
:100850000220FEF769FF40E7FEF780FF1222274BD8
:1008600000241A7039E7FEF779FF0020FEF75CFFDD
:100870001322224B00241A702FE7FEF76FFF01208E
:10088000FEF752FF14221D4B00241A7025E7FEF7D5
:1008900075FF1A4B00241D701FE7FEF76FFF0C2237
:1008A000164B00241A7018E70220FEF749FF14E7E0
:1008B0000020FEF739FF4EE70020FEF735FF042049
:1008C0009DE70020FEF730FFA91E4B1E99414B42C9
:1008D00002211940023168E70020FEF725FF0220BF
:1008E00078E70024F9E6C046783400207C34002004
:1008F000908E02004C34002080340020A43400206C
:100900002C34002070B501241E4B044019601E4B8E
:1009100018601E4B1A6083070FD50E221C4B1D4812
:100920001A700132DA704A080221FAF7EBFC051E50
:1009300016D0002C20D1280070BD002C0DD1164AF5
:1009400000211648FAF780FD051EF4D1144A012152
:100950001448FAF779FD0500EDE7FEF735FFEEE7FD
:10096000FAF728FD051EE4D10F4A00210F48FAF7D7
:100970006BFD0500002C01D0FEF726FF002DDAD11B
:10098000DDE7C0464C34002078340020A03400203D
:1009900070340020F08E02009D040200088F0200D7
:1009A000D9030200008F020095060200048F0200A6
:1009B00003000720012B0DD8012A0CD0012910D0EB
:1009C000002916D0022912D15800C0180C4B1B1850
:1009D00000205A70704700220129EFD11A000E3210
:1009E000D2B258000649C3185A540020F2E7072033
:1009F000F0E75800C018024B1B189A700020E9E776
:100A00007034002010B5FEF713FFA023DB059C46D1
:100A1000E02380006044DB00C25805490A40C25010
:100A2000C022C15892020A43C250002010BDC046E5
:100A3000FFFFFCFF10B50020FFF7E4FF002802D005
:100A4000062800D010BD0120FFF7DCFF0028F9D0F8
:100A5000831F5A1E93415B421840F3E710B5038889
:100A6000102B08D0112B05D1294A1368013B1360C4
:100A7000002B07D010BD264C2368002B11D001336A
:100A80002360F7E7012202210020FFF791FF0028F1
:100A90002BD0072829D01F4B1B68002BEAD0984782
:100AA000E8E7012200210020FFF782FF002808D09C
:100AB000072806D0174B1B68002B00D098472368E7
:100AC000DDE7072202210120FFF772FF002801D095
