:020000021000EC
:10B000000040002025EE010065EE010067EE010022
:10B010000000000000000000000000000000000030
:10B0200000000000000000000000000069EE0100C8
:10B0300000000000000000006BEE01006DEE01005A
:10B04000E1C001006FEE010051CE01006FEE010082
:10B050006FEE01000000000011C501006FEE01005D
:10B060006FEE01006FEE01006FEE01006FEE010068
:10B070006FEE01006FEE01006FEE01006FEE010058
:10B080006FEE01008DB401006FEE01006FEE010064
:10B0900069B501006FEE010091F301006FEE010050
:10B0A0006FEE01006FEE01000000000000000000E4
:10B0B0000000000000000000000000000000000090
:10B0C00010B5064C2378002B07D1054B002B02D07E
:10B0D000044800E000BF0123237010BD7820002049
:10B0E00000000000C0070200044B10B5002B03D085
:10B0F0000349044800E000BF10BDC0460000000046
:10B100007C200020C0070200164B002B00D1144BFE
:10B110009D46402292029A1A924600218B460F4683
:10B120001348144A121A00F065F80F4B002B00D098
:10B1300098470E4B002B00D09847002000210400B8
:10B140000D000D48002802D00C4800E000BF00F0C0
:10B150002DF82000290002F06BFC00F011F8C04629
:10B160000000080000400020000000000000000077
:10B1700078200020D0270020000000000000000000
:10B18000084B10B50400002B02D0002100E000BFE6
:10B19000054B1868836A002B00D09847200000F008
:10B1A00031F8C04600000000C005020070B500265E
:10B1B0000C4D0D4C641BA410A64209D1002605F0CD
:10B1C000F3F90A4D0A4C641BA410A64205D170BDC8
:10B1D000B300EB5898470136EEE7B300EB589847B9
:10B1E0000136F2E77020002070200020702000203F
:10B1F0007420002003001218934200D17047197088
:10B200000133F9E7FEE7C046F0B54F46D64646465D
:10B21000C0B5214B1978994600292AD01F4B00242C
:10B2200098461F4B1F4F01269A4603E00134E4B2B3
:10B230008C421ED243461B6832009C46E5006544A2
:10B2400028783B6882401A42F0D093433B6001F07B
:10B2500055F932002B7851469A4009680A4001009E
:10B2600099408A420AD04B4601341978E4B28C42A4
:10B27000E0D31CBC90469946A246F0BD69780139DE
:10B280004A425141091A484241416A68C9B2002AFA
:10B29000E9D018009047E6E794200020C420002061
:10B2A000BC200020C0200020F8B5124D0700280067
:10B2B00000F0D8FC002807D10124BC400E4E3368B2
:10B2C0001C4202D0A3433360F8BD380001F016F9E8
:10B2D0000A4A136800280BD0234313603368002206
:10B2E0001C43074B28001968346000F059FCEBE759
:10B2F000A343F2E79C200020C0200020BC200020B7
:10B3000098200020F0B54746CE4680B50D000700D6
:10B3100083B014000720042A2CD900F0CBFF0028AA
:10B3200033D01C4B1C4A1F601C4B1D701C4B1C60F7
:10B33000002313601B4A6C1E1360E4B2002D1ED064
:10B34000194BE400994603233C1901AD083F984688
:10B35000002602E0083CBC4211D043462B70A37883
:10B3600020784A462900AE70EE706B7000F0ACFF9A
:10B370000028EFD003B00CBC90469946F0BD0B4AB4
:10B3800000210B4800F0F6FBF4E700F061FF002815
:10B39000C7D0EFE7C4200020BC200020942000206C
:10B3A00098200020C0200020A9B2010009B20100AD
:10B3B000C405020070B5094D2B78002B0BD000247A
:10B3C000074E3268E300985C012101F039F82B78D0
:10B3D0000134A342F5D8002070BDC046942000205F
:10B3E000C4200020002300B585B001AA9060002190
:10B3F00003481380536000F005F805B000BDC04657
:10B4000001400000BFF34F8F034B044ADA60BFF3E3
:10B410004F8FC046FDE7C04600ED00E00400FA058E
:10B4200000290CD0002A08D0531E1A4005D1826092
:10B4300001608380C260002070470920FCE70E2075
:10B44000FAE7C04610B584688288C3681B1B9A421D
:10B4500008D3C36813400268D154C3680133C36082
:10B46000002010BD0420FCE78268C3689A420AD01D
:10B470008368828813400268D35C0B708368013351
:10B480008360002070470520FCE7C046A021F0B58E
:10B490000023C6462B4A490000B55350043153508F
:10B4A00004315350043153504C39535004315350EC
:10B4B000254B1B68002B35D0244900265458244ABC
:10B4C000244F1268A41A00222402240A904602E0A3
:10B4D000002D18D02B001A68A24214D8A41AB6184E
:10B4E0001A7CDD69002AF3D0424699691A745A69B8
:10B4F0003B68002B1FD0100098470028E8D0FFF7CA
:10B5000071FF002DE6D11449144A0B7812789A4243
:10B510000BD0134A9B009E5080218023114A5B0070
:10B520004903D15004BC9046F0BD0132D3B2022B86
:10B5300004D00B70EDE708009047C9E700230B70BB
:10B54000E7E7C04600100140E820002004050000A5
:10B55000E4200020C8200020E1200020E02000207E
:10B56000D820002000E100E0F0B55746DE464E4608
:10B570004546E0B5C84BC94A1B68C9499A4609788F
:10B58000137889B0994200D113E10133DBB2022B69
:10B5900000D1FAE01370C34A9B009A5853469B1897
:10B5A0001B021B0A99464946BB4B196001239C4666
:10B5B000BD4BBD491E78BD4B37001B680024059369
:10B5C00049780091B84949680191B7498978029151
:10B5D000B749097803910021884606910491B5493D
:10B5E000079100998F421ED001987900C9198346AE
:10B5F00001370298FFB2381A451EA841C9004042DF
:10B60000594407400878022800D19FE00328E8D178
:10B61000002BE6D01C74DB69002BFBD101210491C7
:10B6200000998F42E0D10499002900D0EDE1069BFA
:10B63000002B02D04946984B19604346002B03D09B
:10B6400069469B4B097B19706346002B00D018E1BB
:10B650000024974B00961B7806938F4B1B689946E6
:10B66000059B9C46002303939A469846924B654659
:10B670009B46002C30D06268A1682000E4694B46EC
:10B68000D31A1B021B0A5B4557D85B18036042465E
:10B6900042608260012202744246C261002D00D1E4
:10B6A0009FE02A689A4200D394E0009E29008446D5
:10B6B00003E00A689A4200D397E00800C9699B1A20
:10B6C0000029F6D102006046944600960360634666
:10B6D000C161D861002CCED15246009EB74200D144
:10B6E0008DE0019A73009B1994460136029AF6B2D6
:10B6F000921B511E8A41DB00634419785242164066
:10B7000001220129EAD15868027C002AE6D192463A
:10B710009A6800964260D96881601E69C6605B695C
:10B720008361069B002B67D052469A464B46D31A3C
:10B730001B0242601B0A5B45A7D94B469A1A1202AC
:10B74000120A8A423AD28B1A0360A0E74D68002B96
:10B7500000D146E79B469D4219D0180000E0080042
:10B76000C169002900D13CE78D42F8D1834685426A
:10B770000ED058462968ED69C561002D00D130E72B
:10B7800028688346594429602BE7002302E71D00FF
:10B790000121DB690491002BEBD10120079988601E
:10B7A0000121884603910691002189464146049172
:10B7B000DFE70023D14600229C46F9E643460360BA
:10B7C00043608360012303744346C361002D08D0A6
:10B7D00000232A68D31A2B600123C5610393050057
:10B7E00047E701230500039343E700960600D21ABA
:10B7F00060460A60B44669E701239A463FE7AC46D3
:10B80000002A00D0FEE0039B002B02D06246274BAB
:10B810001A60264B059A1B68934202D1049A002AAB
:10B8200025D0002B00D1B9E0244A2248244C81586D
:10B830004A468A1A12022578120A1B680332002D22
:10B8400063D0934200D21300A8244B4419481B0232
:10B850001B0AE400194D035142595B1A521A120295
:10B86000120A1B0203321B0A9A4200D970E000231D
:10B870000F4A137009B03CBC90469946A246AB46AD
:10B88000F0BD00256446059BB44600210020A94672
:10B89000B8462E002CE0C046E4200020E020002026
:10B8A000E1200020D8200020CC200020E82000202B
:10B8B000D420002000100140FEFF7F00040500009E
:10B8C000D52000201D68954200D95BE04946521BF7
:10B8D0004019DD681960DF69002D07D05146DE612F
:10B8E0001E0009180902090A59609D6021003B00E9
:10B8F000002BE7D1320047466646A44614000029D3
:10B9000000D08DE063460493A3E68025D1266D0226
:10B91000B6008551403E8551C0278026444DB60271
:10B920007F00EE512E60012505604248424F0668B7
:10B930002F20C046C046C046C046C046C046C0468E
:10B94000C046BE4200D0C0460138F2D1257078E72B
:10B95000435939490351374B1A682F23C046C04613
:10B96000C046C046C046C046C046C0468A4200D017
:10B97000C046013BF2D1802380212D4A5B00890221
:10B98000D15074E7300047466646A44604000029BB
:10B990004AD1AA1A1A60634604935AE6802080228C
:10B9A0002349800288508022D22001252349520257
:10B9B00080000A5040380A501E4A4D6010682F22FD
:10B9C0001D4C1600C046C046C046C046C046C046D4
:10B9D000C046C046A04200D0C046013EF2D18D60B4
:10B9E00017490B60C046C046C046C046C046C04668
:10B9F000C046C046A04200D0C046013AF2D1114A2A
:10BA0000137034E7104B1F70FDE610490B60059969
:10BA10000593C91A0800411E8841C1B2049106E687
:10BA20000A4A059313606DE7084905930B60B0E778
:10BA300000E100E06C2000200024F4000010014030
:10BA4000E4200020D5200020CC200020E820002089
:10BA5000F0B5DE4657464E4645460324E0B59B46C4
:10BA6000144000D064E0002A00D161E080278025E6
:10BA7000334EBF027751D2238025324F6D029B0097
:10BA8000FD50403BFD5001232F4D7B6099462B68B4
:10BA90002F259C462D4B98462B00C046C046C046DD
:10BAA000C046C046C046C046C046C44500D0C04699
:10BAB000013BF2D14B46BB60C046C046C046C046C3
:10BAC000C046C046C046C046C44500D0C046013D41
:10BAD000F2D15B461E4D2C701E4D2B6000251E4B77
:10BAE0001C8099705A601D4B80221C601C4BC52124
:10BAF0001D701C4B52031D70C0235B00F250890067
:10BB00007358FF34A3433F3C23437350A123DB000E
:10BB100032600439F8507358134A00201A40C02389
:10BB20001B0213437350114BFA58114B1A6000E07B
:10BB300007203CBC90469946A246AB46F0BDC046A5
:10BB400000E100E0001001406C2000200024F4001F
:10BB5000D5200020C8200020CC200020E820002094
:10BB6000E0200020E1200020FF00FFFF040500008E
:10BB7000E4200020094B5B68002B0AD0002A0AD081
:10BB8000002808D00368187C002802D159745A6133
:10BB900070470820FCE70720FAE7C046CC200020C9
:10BBA000F0B54746CE4680B52A4C83B063680600A0
:10BBB0000F009046002B44D0002842D004293ED9E3
:10BBC0004369002B3DD0437C012B3CD00023994698
:10BBD0006B46DD1D002328002B7000F08FF9617883
:10BBE000A3784A1CD2B29B1A581E83415B421A406A
:10BBF0002378934229D04B005B186168DB008C46A8
:10BC00006344002B21D001211348197013495E6051
:10BC10004158DF6099604946196141462878596169
:10BC2000627000F08BF98023802100200C4A5B00B9
:10BC30004903D15003B00CBC90469946F0BD072093
:10BC4000F8E70820F6E78946C2E7287800F076F999
:10BC50000420EFE7CC200020001001400405000084
:10BC600000E100E070B51F4C82B063680600002B55
:10BC700030D000282ED04369002B2BD06A460023F9
:10BC8000D51D037428002B7000F038F96178A37873
:10BC90004A1CD2B29B1A581E83415B421A40237839
:10BCA000934219D04B005B186168DB008C466344FB
:10BCB000002B11D0022119705E602878627000F0AC
:10BCC0003DF9802380210020074A5B004903D150C1
:10BCD00002B070BD0820FBE7287800F02FF904209F
:10BCE000F6E7C046CC20002000E100E030B5047843
:10BCF00085B0012C22D0002C11D0022C0DD102AB2A
:10BD00001C70C3680122254925480193039300F064
:10BD1000A1FF244B02A81B68984705B030BD224CF8
:10BD200022482100FFF7A0FB002831D0032302AAFC
:10BD300013701C4B10001B689847EEE743681C4DBE
:10BD400019782800FFF77EFB002816D002AB1C7084
:10BD5000144B03901B6802A89847A968AA88EB684F
:10BD60005B1A9A4203D20122124B1A70D5E70122C4
:10BD70000A490B4800F06EFFCFE7AA68EB689A42C9
:10BD8000EBD002AB1870074B02A81B689847E4E79A
:10BD900001222100024800F0D1FEBEE7142100205C
:10BDA0004C200020EC20002018210020042100203D
:10BDB000F020002000210020F0B51E00254B89B0A6
:10BDC00005000C1E1A6043D08A8823480968FFF7D3
:10BDD00027FB002801D009B0F0BDA289A1681F4847
:10BDE000FFF71EFB0028F6D169460A001C4B91CBD9
:10BDF00091C291CB91C211CB11C26B698B612B7C2B
:10BE00000E775A1E93410B756B7C5A1E93410E227E
:10BE10005B4213404B75EB688B60AB68CB602B6863
:10BE20004B606B6800930F4C0F4A200000F0E0FD60
:10BE30000028D0D10D4B18702B680133CBD02000D7
:10BE400000F0E8FF01220A49200000F003FFC2E7EA
:10BE50000720C0E7EC200020F02000200421002073
:10BE6000C80502004C200020EDBC0100002100208C
:10BE70001421002070B50B4C01000B482678FFF709
:10BE8000F3FA0500002E01D1280070BD0023012225
:10BE900006490748237000F0DDFE0028F4D0FFF7C4
:10BEA000A1FAF1E700210020F02000201421002059
:10BEB0004C200020F8B50E4D01002800FFF7C2FA13
:10BEC000041E01D02000F8BD0A4E300000F0B4FE80
:10BED0000028F7D1084F28003900FFF7C5FA0028DD
:10BEE000F0D101223900300000F028FE0400E9E71B
:10BEF000042100204C20002018210020F0B5EFF391
:10BF0000108172B60A4B5A68002A0DD1012480258F
:10BF1000084E5C607459084F3C401C6077510270B9
:10BF2000002900D162B6F0BD01230370F8E7C046D6
:10BF3000C427002000E100E0FC06FFBC10B5084B60
:10BF40005A68002A0BD0002809D1EFF3108272B68C
:10BF500004491C680C605860002A00D162B610BD0C
:10BF6000C427002000E100E0002804D0034B5B6EF2
:10BF70000360002070470320FCE7C0461C2100201E
:10BF800070B5161E07DD0C008D1820780134FFF700
:10BF900091FFAC42F9D1300070BDC04610B50C0025
:10BFA0002000FFF767FF0528FAD0012010BDC0462A
:10BFB000A022044BD205D358034A125C0120D3407F
:10BFC0001840704704050000EC050200044BA02156
:10BFD0001A5C01239340A122C905D2008B507047FF
:10BFE000EC050200044BA0211A5C01239340034A94
:10BFF000C9058B507047C046EC0502000C050000D7
:10C00000A0228021054BD2058901D1508021C90190
:10C01000D15080210902D1507047C0460C05000064
:10C02000A022A1238021D205DB008901D1508021EB
:10C03000C901D15080210902D1507047A02210B50A
:10C04000074BD205D158074B185C012383401C00D5
:10C05000A1208C430B400449C0001450535010BD24
:10C0600004050000EC0502000C050000A0230322DB
:10C070000849DB055A5004315A5007495A5080216B
:10C08000064A890199508021C901995080210902ED
:10C0900099507047340700003C0700000C05000071
:10C0A000A022A223D205DB00D358034A125C012050
:10C0B000D34098437047C046E8050200112807D0D6
:10C0C0001A38434258410223404218400138704711
:10C0D0000020FCE7014B185C7047C046E8050200F1
:10C0E00010B51A4B1A68002A14D0002280211A6059
:10C0F000C2220123164CC90592008B506370A368BD
:10C10000002B07D01A6800205B68A2609847A368DC
:10C11000002BF7D10F4B1A68002A15D000221A60A5
:10C120008022C22302219B00D205D1500123084C5A
:10C13000A3702369002B07D01A6801205B68226175
:10C1400098472369002BF7D110BDC046000100407D
:10C15000842100200401004010B500280BD1064CBA
:10C16000A368002B07D01A6800205B68A26098477C
:10C17000A368002BF7D110BD8421002030B583B017
:10C180006B46DD1D002328002B70FFF7B7FE144C13
:10C190002378002B09D0E36828780133E36001237A
:10C1A000A370FFF7CBFE03B030BD6360A3602361D3
:10C1B000E3600C4B1B68DB070CD503F089F8002803
:10C1C00005D18022A3230121D205DB00D150012318
:10C1D0002370E0E70321002000F006F8EDE7C046F9
:10C1E0008421002000E100E0FF22032330B5140089
:10C1F000C5B22B40DB009C4089010A40E4439A40D1
:10C20000002814DB104B80089C46C023800060444B
:10C210009B00C1580C402243C2501F23C0211D4027
:10C220001E3BAB40084A49005350136030BD0F23FA
:10C2300006492B408C46083B9B089B006344D96908
:10C240000C402243DA61E8E700E100E000ED00E0A5
:10C2500070B54425144C665D002E22D101235B424B
:10C2600023606360A360E36023616361A361E361B2
:10C2700023626362A362E36223636363A363E36392
:10C28000236403210620FFF7AFFF084B80211E60C7
:10C29000C123074A9B000906D150012300206355A2
:10C2A00070BD0820FCE7C046982100207C6100405A
:10C2B000006000404423034AD05C431E9841C0B252
:10C2C0007047C04698210020F0B5CE46474680B55D
:10C2D000584B91461D1820352E7808247F2E3DD9C5
:10C2E000CF78002F3FD11A69013200D199E005249F
:10C2F0000826A5005A5901325AD0621C950094466E
:10C300005A59013200D18AE0A21C9446B24224D28A
:10C3100095005A59013200D181E0E21C9446B242A4
:10C320001BD295005A59013200D178E0221D944663
:10C33000B24212D295005A59013200D16FE0651D08
:10C34000B5420AD2AA009A58013200D16FE00634F1
:10C35000B44202D2DA69013228D0042420000CBC95
:10C3600090469946F0BD1A68012404260132C0D1D6
:10C3700000264A462E701A608A78002A2AD0A02405
:10C38000E405A446E025022782006244ED005459EA
:10C39000BC4354510A78C978002928D19B193C33F1
:10C3A000197892010A431A700024D7E707241C2544
:10C3B0001A18944620229046C444624666B216700B
:10C3C0004A465A51002FD7D11C193C3420708A7824
:10C3D000002AD4D10200A0254C78C132FF3292004D
:10C3E000A400ED0554510A78C9780029D6D0124925
:10C3F000B3008C46A2216344C9005C580F4D000273
:10C400002C40F8256D012840C0255C501204AD0277
:10C410005C582A4010432043585000249EE764464D
:10C42000C6E704244A462C701A610426CCE72C0087
:10C43000AD00BDE79821002000600040FFE0FCFF58
:10C440000023F0B52A4C22182032D356032B1FDDCF
:10C45000E3183C331B789B09032B3AD0013B5A1E4F
:10C46000934180225B425202134080229202944602
:10C470006344A022D2059446E02280006044D200AA
:10C4800081581C4C2140815081580B438350F0BD92
:10C49000D8B20328FBD8184DA227AC460126980035
:10C4A0006044FF00C5593543C55118006546002753
:10C4B0004030800080B247510029E8D0127852B253
:10C4C00092001259002AE2D09E40C1239B00EE50F8
:10C4D000DDE7A022A223D205DB00D2580123C2400F
:10C4E0001340C02292029446013B1B046344C0E700
:10C4F00098210020FFFFFCFF00600040A022A22343
:10C50000D205DB00D358C340012018407047C04615
:10C51000F0B5DE4657464E4645460021E0B5CB4ACB
:10C5200087B0039113680024012B00D148E1C84B68
:10C530001A68012A00D150E1C64B1A68012A00D1BD
:10C540005BE1C54B1A68012A0FD0C44B1B68012B55
:10C5500000D15EE1230717D1002C34DB07B03CBCCF
:10C5600090469946A246AB46F0BDC122BC49920016
:10C57000895808220A42E8D000211960B74B1443B9
:10C580001B68012B00D144E11F239946B54BA2271C
:10C59000012600259846FF0026420ED04946B04AA3
:10C5A000AB009A18D059000A0840D1594246D358D6
:10C5B0008903890F002B00D0984701357600042DA0
:10C5C000EAD1002CCADA00230493013B05934133DE
:10C5D0009846C026A34C4346E1564B1C2CD007235B
:10C5E0000127C9B208000B409F40B043C20805AB09
:10C5F0009B5C1F4220D0231820331B7889095BB233
:10C600009B00E3589B46002B00D16CE1032900D12D
:10C610006CE1A025ED05A94683009944E0234D4631
:10C62000DB00EB5803ADAA5C9B039B0F174200D0C5
:10C6300027E1032B00D16DE100274123E1564B1C7C
:10C6400037D007230125C9B20B409D4008002B00BD
:10C65000B043C20805ADAD5C2B422AD02518AC46CC
:10C660002025A946CC4465462D7889096DB2AD00D8
:10C6700065590191A946002D00D126E1032900D179
:10C6800026E18500AA46A025ED05AC46E025ED0093
:10C69000E244AC465546614669588903890F8C4689
:10C6A00003A98A5C134200D0F2E06346032B00D159
:10C6B00079E14223E1564B1C37D007230125C9B24B
:10C6C0000B409D4008002B00B043C20805ADAD5C97
:10C6D0002B422AD02518AC462025A946CC446546D5
:10C6E0002D7889096DB2AD0065590191A946002DDB
:10C6F00000D101E1032900D101E18500AA46A0256E
:10C70000ED05AC46E025ED00E244AC4655466146F9
:10C7100069588903890F8C4603A98A5C134200D0AB
:10C7200084E06346032B00D126E14323E1564B1CF2
:10C7300036D007230125C9B20B409D4008002B00CD
:10C74000B043C20805ADAD5C2B4229D02518AC46DC
:10C750002025A946CC4465462D7889096DB2AD00E7
:10C7600065590191A946002D00D1A0E0032900D10F
:10C77000A0E08500AA46A025ED05AC46E025ED0029
:10C78000E244AC465546614669588903890F8C4698
:10C7900003A98A5C134267D16346032B00D1D2E020
:10C7A000002F00D1DAE6A022A223D205DB00D35865
:10C7B000039A934200D1D1E60393049B05930AE7C1
:10C7C000C120274C800024581C4000D1AFE6204BEC
:10C7D00011601A68012A00D0AEE6C12220499200F9
:10C7E000895802220A4200D1A6E600211960194B9D
:10C7F00014431A68012A00D0A3E6C1221849920006
:10C80000895804220A4200D19BE600211443196092
:10C8100097E60022114B1A6080231B061C43A022BE
:10C82000A223D205DB00D358039393E66346022B81
:10C8300000D07AE7019B032B00D1D3E04B46002BBD
:10C8400000D172E70199C8476FE7C0460061004018
:10C8500004610040086100400C6100407C610040C0
:10C8600000600040982100206346022B98D1019B74
:10C87000032B00D1AEE04B46002B91D00199C84765
:10C880008EE7022B00D0D7E6032959D0002751E0CC
:10C890006346022B00D00CE7019B032B00D19DE0E7
:10C8A0004B46002B00D104E70199C84701E7032953
:10C8B00000D075E704A98C46944461460978194371
:10C8C0008A46614655460D7053E7032900D0F0E6CD
:10C8D00004A98C4694446146097819438A46614606
:10C8E00055460D70CDE6032900D0A5E604AB9B1894
:10C8F0001D783D431D708CE6032900D015E704A97F
:10C900008C4694446146097819438A4661465546E7
:10C910000D70F2E60329B9D180229202E0234D4640
:10C92000DB00EF58314D2F404D46EF50EF58174385
:10C93000EF5001275B46002B00D17EE6D8477CE60E
:10C94000C0229202EAE7019B032B94D180239B0231
:10C950009C46E0235246DB00D258244901370A4066
:10C960005146CA50CA5861460A435146CA504B46BE
:10C97000FFB2002B82D116E7019B032B00D05DE7AD
:10C9800080239B029C46E0235246DB00D258174985
:10C9900001370A405146CA50CA5861460A435146B7
:10C9A000FFB2CA504AE7019B032B00D078E78023EF
:10C9B0009B029C46E0235246DB00D2580B490137CC
:10C9C0000A405146CA50CA5861460A435146FFB20E
:10C9D000CA5065E7C0239B029C46BAE7C0239B026E
:10C9E0009C46E7E7C0239B029C46CCE7FFFFFCFF89
:10C9F000F8B5CE46474680B507794A4CFE00F31B92
:10CA00009B00E318DB7E050091460820002B5DD1DA
:10CA10000B685A1C0DD007389840A1220300A020B3
:10CA2000D200C005835003220B68C133FF339B0043
:10CA30001A504B685A1C06D0A0200022C133FF3385
:10CA40009B00C0051A5028688A69374BC250087D80
:10CA50004B7D2A680343354813500A682B68944677
:10CA600033484A681A50624632481A500B7D012BEF
:10CA700030D04A46F31B9B00E01842600A69E2503E
:10CA80004B46002B12D08E22002328685200097FCB
:10CA90008350286828328350C1232868264A9B0087
:10CAA000C2502B68180B40B2FFF79EFBA023042155
:10CAB0002A68DB00D150002301220020F61BB600BB
:10CAC000A419E3752376A375E276A3760CBC904691
:10CAD0009946F8BD8B685A1C06D0A0200022C133AD
:10CAE000FF339B00C0051A50CB685A1C0ED00120A2
:10CAF0009840A1220300A020D200C0058350032249
:10CB0000CB68C133FF339B001A50CB688A68286812
:10CB10009446A122D2008350A2236246DB00C25079
:10CB2000A7E7C046E0210020240500006C050000B6
:10CB3000140500000C05000080000200F0B5DE4680
:10CB4000574645464E463A4BE0B59B460479112779
:10CB5000E3001B1B9B005B449D7D002D23D18E2495
:10CB60009D8299609A750379012298460368640052
:10CB70001D51036800279A6043464246DB009A1A1B
:10CB800092005A449C469368016899460D514D465F
:10CB9000938AED5C938A01339BB29382254BCD50EF
:10CBA0005368002B06D038003CBC90469946A246FC
:10CBB000AB46F0BD8025977D6D001100938A14313E
:10CBC000BB421CD2016802E0938AAB4202D00B59EF
:10CBD000002BF9D0938AAB42EFD000234E460B5185
:10CBE000938AF35C9A465646938A01339BB29382AA
:10CBF000104BCE501100938A1431BB42E2D38023F4
:10CC00000A885B009A4211D08E210268490053586D
:10CC1000002BFCD001230027D360634642469B1AB9
:10CC20009B005B441E000023B375BCE70F27F4E7AD
:10CC3000E02100201C0500000279D3009B1A044A61
:10CC40009B00D318987D431E9841C0B27047C046E0
:10CC5000E0210020F0B5574645464E46DE46E0B599
:10CC600006796B4CF3009D1BAD0065196F6883B0AE
:10CC70008A469046002F09D0C22281259200AD003D
:10CC80009146AC464946624605686A509B1B9B002C
:10CC9000E318DD7D002D0DD01D7E002D30D0002F3E
:10CCA00000D1AFE0C123812102689B008900D150EF
:10CCB00011231DE04246DA7552465D76DA601D7634
:10CCC0000579EB009C465B1B9B00E3189B7E002BC9
:10CCD00000D18BE063465A1B9200A218536801688A
:10CCE000002B1CD0C12381229B009200CA5000233C
:10CCF000180003B03CBC90469946A246AB46F0BD36
:10CD000052461A6142461A7605790168EB009C4644
:10CD100063465A1B9200A2185368002BE2D1A22648
:10CD200076008B51922149008B460E39FF39894696
:10CD3000023184278A46904603687F000196914419
:10CD400092445A4601999A58DE595958002E1AD1E0
:10CD5000002942D01C23904600226B43E318DA7569
:10CD600042460323002AC3D10C330029C0D16246B6
:10CD7000551BAD006419A27E0368002A44D001222D
:10CD80001A600023B4E716000E43E3D14A46117837
:10CD900000290CD1D951A3214246C9005B58537ECA
:10CDA000634600225B1B9B00E318DA75DFE7A321D3
:10CDB0005246DE51C90012785B584146C9688B540F
:10CDC000534652461B780133DBB2137013784A4640
:10CDD00012789A42E4D90368B3E7002AB1D06346D7
:10CDE0005D1BAD006419E175032381E792220168A0
:10CDF00052008B5001681C3A8B500368083AFF3A86
:10CE00001A6067E7112373E701225A6000236FE776
:10CE1000E021002010B501790C4ACB005B1A9B0081
:10CE2000D3189B7E002B10D19221046849006350D7
:10CE300004681C39635003680839FF3919600079A8
:10CE4000C3001B1A9B00D218917610BDE021002070
:10CE5000C12330B5614A9B00D35885B09B055ED590
:10CE600092235B00D158002959D00021D150812153
:10CE7000E533FF338900D150594B997E002901D108
:10CE800001315160022269460A7090215348C9005D
:10CE90004258425069460392DA7D68460A72DA685F
:10CEA000196801920022DA751A765B6898478E211C
:10CEB0004A4A49005358002B12D0494B9C8A987D0E
:10CEC000844257D300245450002809D06A46107277
:10CED00014709A689C75196801925B686846984757
:10CEE000A2233E4A5B00D158002916D00021D15020
:10CEF0003B4B997E002901D001211160DA7D002A87
:10CF00000BD0002268460121DA755A7E0170027248
:10CF1000DA68196801925B68984705B030BDC12393
:10CF20002E4A9B00D3585B07C1D584214900535832
:10CF3000002BBCD02A4BD87D002827D15050A321EC
:10CF4000C90052585A7E8242B1D11A7E1968002A0D
:10CF50002AD0DA751A69D868DA6000226D465C7EDC
:10CF60001A765A76013201902A702C725B686846F4
:10CF700098479CE700205050998A9868405C998AAD
:10CF8000013189B29982174BD050A9E70020505047
:10CF9000A320C000597E1258D86842545A7ED87DCA
:10CFA0000132D2B25A76CDE79A7E002A02D1012010
:10CFB0000A4A5060C222812408489200A40084508A
:10CFC00000226C460120DA755A7E20702272DA68DF
:10CFD000684601925B68984769E7C04600200040B8
:10CFE000E02100201C05000010B50220FFF726F804
:10CFF00010BDC046F8B5CE46474680B505000E00C8
:10D00000FFF75CF80400012803D90CBC9046994650
:10D01000F8BD012E1ED0002E0FD0022EF5D14300F8
:10D020001C4C1B18E4186678002EEED01A4B1B68B7
:10D03000002BEAD030009847E7E71848FEF712FEC9
:10D040006200144B12199B189E78154B1B5DB3425E
:10D05000DBD1E9E70F4F430098461B18FE5CFB1835
:10D060005B78002B06D143461B19FF18BA780C4B8E
:10D070001A55D9E70B4B094899460B4B4A461B6892
:10D080009900C9184900FEF78BFD0028EBD14B46EB
:10D090001D70E8E744220020742200202422002092
:10D0A0007C220020FC2100202022002070B5764B3D
:10D0B0001B68DB0700D470BD744E754D33782C7837
:10D0C000002B05D1172CF6D8724AA300D3589F46DF
:10D0D00000233370FEF794FFF4E70123012033703F
:10D0E000FEF7ACFF6C4B00221B686C489900C91816
:10D0F000FEF756FDDFE7012301203370FEF79EFFA8
:10D10000654B002219686548FEF74AFDD3E7FEF734
:10D1100087FF2C70CFE7FEF783FF0C232B70CAE745
:10D120005F4D2800FEF79EFD11231C1B00D18DE0F2
:10D13000002800D08AE0012C0BD0C8306421604365
:10D1400002F064F9544B0022196841432800FEF7AD
:10D1500027FD0220FEF73AFFADE7FEF751FF12234D
:10D160002B70A8E7FEF74CFF0020FEF72FFF1323DC
:10D170002B70A0E7FEF744FF0120FEF727FF1423E2
:10D180002B7098E7FEF73CFF0020FEF71FFF012001
:10D19000FEF71CFF15232B708DE70020FEF716FF0E
:10D1A00007232B7087E70020FEF702FF002857D0E7
:10D1B0000020FEF717FF05232B70374B002219685C
:10D1C00036484900FEF7ECFC75E70020FEF736FF15
:10D1D00006232B7094E7FEF713FF00232B706AE7FA
:10D1E0000020FEF7E5FE002843D00020FEF7FAFEFF
:10D1F000A11E4B1E99414B42162119401231264B5C
:10D2000000221B68254859432C70FEF7C9FC52E7E1
:10D210000020FEF7CDFE00281CD00020FEF7E2FE25
:10D220000822032309E00020FEF7C2FE00281BD0DD
:10D230000020FEF7D7FE282204232B70164B174838
:10D24000196851430022FEF7ABFC34E70220FEF7D9
:10D25000C9FE30E70020FEF7B9FE02220323ECE707
:10D260000020FEF7B3FEA6E70020FEF7AFFE042283
:10D27000E2E70020FEF7AAFEA11E4B1E99414B4299
:10D28000022119400231BAE74C220020502200202E
:10D2900078220020F00502002022002054220020E5
:10D2A0000022002010B50078FEF708FF012800D901
:10D2B00010BD43001B180548C01840780028F7D05F
:10D2C000034B1B68002BF3D09847F1E74422002062
:10D2D0007422002010B5FEF7E3FE10BD70B5864B3A
:10D2E00005001B680024DB0701D4200070BD834EBD
:10D2F0003378002B06D1172D00D9FAE0804AAB0015
:10D30000D3589F463470FEF77BFEF4E701230120DB
:10D310003370FEF793FE7B4B00221B687A4899001E
:10D32000C918FEF73DFC0400DFE70123012033703C
:10D33000FEF784FE734B002219687348FEF730FC39
:10D340000400D2E70020FEF741FE07226F4B0024C5
:10D350001A70CAE70020FEF72BFE002800D1AFE0CC
:10D360000020FEF73FFE0522684B67481A70654BA8
:10D37000002219684900FEF713FC0400B5E70020FD
:10D38000FEF75CFE0622614B1A70D3E7FEF738FE0B
:10D3900000225E4B00241A70A7E70020FEF708FE6B
:10D3A000002800D195E00020FEF71CFEA91E4B1EB0
:10D3B00099414B42162119401231544B00221D70E5
:10D3C000504B51481B685943FEF7EAFB04008CE7B9
:10D3D0000020FEF7EDFD002800D185E00020FEF7DB
:10D3E00001FE08200322494B1A70464B002219689F
:10D3F00041434548FEF7D4FB040076E70020FEF7E2
:10D40000D7FD002860D00020FEF7ECFD28203F4B20
:10D410000422E9E7FEF7F4FD0020FEF7D7FD012026
:10D42000FEF7D4FD1522394B00241A705DE7384E03
:10D430003000FEF717FC04001120451B3CD0002CE7
:10D440003AD1012D0CD0B7306421684301F0DEFFE2
:10D450002C4B0022196841433000FEF7A1FB040069
:10D460000220FEF7B3FD40E7FEF7CAFD1222274B6C
:10D4700000241A7039E7FEF7C3FD0020FEF7A6FD71
:10D480001322224B00241A702FE7FEF7B9FD01206A
:10D49000FEF79CFD14221D4B00241A7025E7FEF7B1
:10D4A000BFFD1A4B00241D701FE7FEF7B9FD0C22CB
:10D4B000164B00241A7018E70220FEF793FD14E7BC
:10D4C0000020FEF783FD4EE70020FEF77FFD0420DD
:10D4D0009DE70020FEF77AFDA91E4B1E99414B42A5
:10D4E00002211940023168E70020FEF76FFD02209B
:10D4F00078E70024F9E6C0464C22002050220020A4
:10D500005006020020220020542200207822002011
:10D510000022002070B501241E4B044019601E4BF0
:10D5200018601E4B1A6083070FD50E221C4B1D4836
:10D530001A700132DA704A080221FDF7E3FE051E77
:10D5400016D0002C20D1280070BD002C0DD1164A19
:10D5500000211648FEF70EFB051EF4D1144A0121E6
:10D560001448FEF707FB0500EDE7FEF77FFDEEE749
:10D57000FDF720FF051EE4D10F4A00210F48FEF7FA
:10D58000F9FA0500002C01D0FEF770FD002DDAD16C
:10D59000DDE7C046202200204C220020742200201B
:10D5A00044220020B0060200ADD00100C8060200EF
:10D5B000E9CF0100C0060200A5D20100C4060200A6
:10D5C00003000720012B0DD8012A0CD0012910D00F
:10D5D000002916D0022912D15800C0180C4B1B1874
:10D5E00000205A70704700220129EFD11A000E3234
:10D5F000D2B258000649C3185A540020F2E7072057
:10D60000F0E75800C018024B1B189A700020E9E799
:10D610004422002010B5FEF75DFDA023DB059C46EB
:10D62000E02380006044DB00C25805490A40C25034
:10D63000C022C15892020A43C250002010BDC04609
:10D64000FFFFFCFF10B50020FFF7E4FF002802D029
:10D65000062800D010BD0120FFF7DCFF0028F9D01C
:10D66000831F5A1E93415B421840F3E710B50388AD
:10D67000102B08D0112B05D1294A1368013B1360E8
:10D68000002B07D010BD264C2368002B11D001338E
:10D690002360F7E7012202210020FFF791FF002815
:10D6A0002BD0072829D01F4B1B68002BEAD09847A6
:10D6B000E8E7012200210020FFF782FF002808D0C0
:10D6C000072806D0174B1B68002B00D0984723680B
:10D6D000DDE7072202210120FFF772FF002801D0B9
:10D6E0000728EFD1042202210020FFF769FF00285C
:10D6F000EDD00728E6D12368C9E7072202210120DF
:10D70000FFF75EFF002801D00728CCD10A220021B4
:10D710000020FFF755FF0028B4D00728C3D1B1E798
:10D7200084220020802200201D4B10B50C1E1860A2
:10D7300006D00120FFF7CEFD002823D0022323705E
:10D74000184B1B68002B01D0002010BD01220221C4
:10D750000020FFF735FF002801D00728F5D1072268
:10D7600002210120FFF72CFF002801D00728ECD16F
:10D770000A2200210020FFF723FF0028E4D0072819
:10D78000E3D1E1E70020FFF7A5FD002805D1054B17
:10D7900020701B68002BD7D1D8E70B232370CFE76D
:10D7A000802200208422002076DF70477ADF7047D5
:10D7B0007CDF70477FDF7047A8DF7047A9DF7047C5
:10D7C00067DF70473CDF704748DF704710B5FDF7F3
:10D7D00009FE10BD10B5040084B001F08FFA2100DD
:10D7E000374801F0BFFB2388132B5FD00FD9512B93
:10D7F00046D030D9522B24D0552B0ED1A0881321DE
:10D80000FFF7D2FF002808D0FDF7ECFD05E0102B54
:10D8100024D0112B09D0022B2BD0200001F010F9BD
:10D820002000FFF723FF04B010BD0020FFF756FDD6
:10D83000002801D0FDF7D6FD0122224B52421A806A
:10D84000EBE7204B0022188800210023FFF7B6FFEA
:10D850000028E2D0D8E73A2BD0D0DEE70720FFF748
:10D860003DFD002801D0FDF7BDFDA288154B1A80B3
:10D87000D3E7A0880021FFF7A3FF0028CDD0C3E79E
:10D88000A379002BC9D0A27B043A022AC5D8022B67
:10D8900000D001236A461370C1235B009380A088E7
:10D8A0006946FFF789FF0028B7D0ADE7054B002296
:10D8B000188885210023FFF77DFF0028ADD0A3E75E
:10D8C000602300205820002070B5002A09D00C00E9
:10D8D0008D182078FEF7EEFA0028FAD10134AC4218
:10D8E000F7D10D20FEF7E6FA0028FAD10A20FEF75C
:10D8F000E1FA0028FAD170BD10B50378002B00D0F2
:10D9000010BD054B3B211888FFF74EFF0028F7D0CC
:10D91000FDF768FDF4E7C0465820002010B5072841
:10D920001ED00A280ED0042800D010BD134B13219E
:10D930001888FFF739FF082302009A43F5D0FDF756
:10D9400051FDF2E70020FFF7C9FC002813D1FFF7D3
:10D9500079FE00280CD1FFF735FF0028E5D0EEE76F
:10D96000064B1A88064B9A42DFD101F0C9F8E2E76C
:10D97000FDF738FDEFE7FDF735FDE8E7582000201B
:10D98000FFFF000070B50378012B03D0002B05D0FA
:10D99000022B02D14068FDF725FD70BD0F4C104DE4
:10D9A00020782818FEF766FA22780132D2B2AB1836
:10D9B000013B1B7822700A2B01D0132AEDD992B2B9
:10D9C0002900084801F0DEFB082302009A4302D137
:10D9D00000232370E1E7FDF705FDF9E75C23002054
:10D9E000482300206023002010B5002807D003281A
:10D9F00004D10138FFF772FC00280DD110BD0020C2
:10DA0000FFF76CFC00280AD1FFF71CFE00280CD1A0
:10DA1000FFF7D8FE0028F1D0FDF7E4FCEEE7FDF7B4
:10DA2000E1FCFFF70FFE0028F2D0FDF7DBFCEFE78B
:10DA3000F0B50023ABB0774A05210020FEF708F8C7
:10DA4000002801D0FDF7CEFC734E1BAC2300320042
:10DA500023CA23C323CA23C3704B714A0C93802368
:10DA60000CAD5B006B60AA60EB606E4AFD3B290069
:10DA70002000FEF7A1F9002801D0FDF7B3FC6A4AA7
:10DA80006A490320FFF746FD002801D0FDF7AAFCF4
:10DA900021000020FFF748FE002801D0FDF7A2FC7E
:10DAA000B369482203930C9361490023280001F0D5
:10DAB00015FC002801D0FDF795FC22000121002073
:10DAC00001F07EFC002801D0FDF78CFC200001F065
:10DAD0008FFC002801D0FDF785FC564801F04EFC74
:10DAE000002801D0FDF77EFC1123534E2B7030002F
:10DAF00001F026FE310082B22800FFF759FE00280F
:10DB000001D0FDF76FFC082200212000FDF772FB19
:10DB10004A4B20001B93C8235B041C93FFF746FE6F
:10DB2000002801D0FDF75EFC002104222000FDF753
:10DB300061FB434B210043481B9301F045FA002849
:10DB400001D0FDF74FFC3C2200212800FDF752FBDD
:10DB5000022300272B703C22033300212000EB70AE
:10DB6000AF70FDF747FB012304AE2382364B202222
:10DB7000002130006361FDF73DFB0123F37040237A
:10DB800033617433736132000097304B21002800F9
:10DB900000F05EFE002801D0FDF724FC1C220021CD
:10DBA0002000FDF727FBA02292026260F0220023F2
:10DBB0001203A26003221B93E3812374244B2000F1
:10DBC0006361244B2273A36101F05CF8002801D04B
:10DBD000FDF708FCA023A3221F49DB05D2009950C2
:10DBE00010211E4AFF209950A1214001C900585020
:10DBF000E021090299501A4801F088FD032000F045
:10DC0000FFFE002803D1FFF7DFFD0028FBD0FDF762
:10DC1000E9FBF8E788220020CC0602007C230020E4
:10DC20007C24002085D901001DD90100CD0C000005
:10DC300000230020D5D70100E806020010003C00B8
:10DC4000C9D801006023002054200020E9D9010038
:10DC5000F9D80100CDD70100F0FF00000C0500004D
:10DC6000F406020071DF704772DF704779DF70479A
:10DC70007DDF704765DF7047F0B5DE4657464E469C
:10DC80004546E0B587B09B4610AB914604CB0700F4
:10DC90001B88029101931388904603930388002BFD
:10DCA00000D169E000239A4604AB0024DD1C03E0A8
:10DCB0003B880134A3422EDD7B68A1009C460422F0
:10DCC000614405A801F018FD0022290005A8FFF70E
:10DCD000D1FF061E2CD12B784B45E9D14346514646
:10DCE0001A884B469B1800292AD00199994241DB9A
:10DCF0005A44290005A8FFF7BDFF002838D1424645
:10DD00002B78128801349B184246138001239A46CF
:10DD10003B88A342D0DC5346002B2DD043461B88C2
:10DD2000039A013B9B1A9BB2FF2B23D859468B5475
:10DD3000300007B03CBC90469946A246AB46F0BDC9
:10DD400001990233994215DB43460132694692B28A
:10DD50001A805B46097A05A8995443461A88290017
:10DD6000013292B21A805A44FFF784FF0028C6D0CD
:10DD70000600DDE70C26DBE70026D9E7F0B55746BD
:10DD80004E464546DE460023E0B5178813802D3306
:10DD90001400C25C85B005000E000023002A00D0EC
:10DDA000C3E0AA78002A00D0C9E0E978002914D09D
:10DDB000DA1CBA4200D9BAE00222F2542388013AAE
:10DDC00001339BB22380F254238801339BB223801A
:10DDD000F154238801339BB223806A68002A15D04E
:10DDE000D91CB94200D9A2E002211278F15423884B
:10DDF000083101339BB22380F154238852B201339E
:10DE00009BB22380F2542388013323802B89002B7B
:10DE100000D0E2E02B8A002B00D0F7E02B8B002B08
:10DE200000D00DE12B6A002B42D02088821DBA421F
:10DE300000D97CE01A889046052A00D8CBE0B44A85
:10DE4000B449424492B289468A4200D8C3E05A8813
:10DE5000052A00D8BFE0AE498C469444614689B299
:10DE6000494500D8B7E0AC49884504D08A4202D081
:10DE7000904500D9AFE005221221325422880132A8
:10DE800092B22280B1542288013292B22280198843
:10DE9000B2181170090A51702288023292B222809F
:10DEA0005988B2181170090A5170238802332380EF
:10DEB0006B6A9846002B2ED09A882088911C831C70
:10DEC0005B18BB4233D8FE2931D803323254FF22CB
:10DED000238801339BB22380F254424623880133C6
:10DEE0009BB223801288F3181A70120A5A704346A4
:10DEF0002088023080B220809A88002A0BD099684E
:10DF0000002900D167E0301801F0F6FB4246238873
:10DF100092889B1823802C23EB5C002B00D0A9E077
:10DF20002B78002B53D1002002E0082F28D80C209A
:10DF300005B03CBC90469946A246AB46F0BD0433C2
:10DF40000C20BB42F4D802A8FFF790FE0028EFD1C6
:10DF500003222388F2542388163201339BB2238094
:10DF6000F2546A462388128901339BB22380F31846
:10DF70001A70120A5A70238802339BB2238014E766
:10DF800002A8FFF76FFE0028D2D1082209212388BA
:10DF90006944F2542388133201339BB22380F25434
:10DFA0002088153A013080B22080301801F0A4FB9F
:10DFB0006A462388127A06339BB22380002A00D057
:10DFC000DBE0F254238801339BB22380E9E62A8800
:10DFD000012A00D0A2E00720AAE708239846A84417
:10DFE000019700943300022202214046FFF744FECD
:10DFF00000289DD10197009433001022062140464D
:10E00000FFF73AFE002800D104E791E71023984675
:10E01000A844019700943300022203214046FFF7F1
:10E020002BFE002800D083E70197009433001022D4
:10E0300007214046FFF720FE002800D1EEE677E7F3
:10E0400018239846A8440197009433000222142113
:10E050004046FFF711FE002800D069E701970094C1
:10E060003300102215214046FFF706FE002800D19C
:10E07000D8E65DE7AB6A9846002BACD09B880233AC
:10E08000FE2B00D953E700229146163292461632F3
:10E0900093462088524601333354238801339BB280
:10E0A0002380F2544246238801339BB22380128896
:10E0B000F3181A70120A5A7043462088023080B250
:10E0C00020809A88002A0CD09968002900D182E724
:10E0D000301801F011FB434620889B88C01880B29D
:10E0E00020804B460133DBB299465B46EB5C4B45E7
:10E0F00000D815E74B46AA6A5B0090464B449B004C
:10E10000984443469B880233FE2BC3D90FE7C04691
:10E110007FF3FFFF7DF30000FFFF00002288901CCB
:10E12000B84200D903E7012B05D16B7802339B1865
:10E130009F4200D2FBE66B46023FBF1ABFB23018C7
:10E1400002A91F81FFF794FD002800D0F0E62B788C
:10E15000022B1AD0012B12D00822FE2F00D9E6E69E
:10E160002388791CF154238801339BB22380F25415
:10E1700023880133FF182780DAE6012221E76B7834
:10E180009F42E9D31F000822E7E76B461B899F42A5
:10E19000E2D31F000922E0E7F0B557464546DE46C8
:10E1A0004E46E0B595B01F236A4604000F0003AD4C
:10E1B000D381002825D0C1784B072AD500232B8096
:10E1C0002D33C35C002B00D037E18378002B39D18D
:10E1D000032200230020904604AE02223254012282
:10E1E000581C02339BB280B23254F15443469BB266
:10E1F0002B806268002A59D0D91C1F2946D90C20CF
:10E2000008E000262880002F00D111E1FB78002BC8
:10E2100007D0072015B03CBC90469946A246AB46B5
:10E22000F0BD0E336B441A000CA93800FFF7A6FDB1
:10E230000028EFD16B469B7B0CAA29783000FFF7B2
:10E2400013FDE7E70CAB98464046FFF70FFD0028AB
:10E25000E0D1032219212B8804AEF2545A1C92B249
:10E26000B154424611889A1C92B2B2181170090A30
:10E27000517004339BB2E1782B800029B9D0DA1CAD
:10E28000180090461F2AA8D90C20C3E712782980CD
:10E2900052B291460222F2545A1C92B290460A227D
:10E2A000404632544A4602339BB2F2542389002B33
:10E2B00000D0F3E0238A002B00D057E1238B002B02
:10E2C00000D070E1236A002B3DD02A88911D8A4638
:10E2D0001F2900D993E7188805289AD9CB498C467D
:10E2E0008444614689B28C46C94988468C4500D829
:10E2F0008FE759888C46052900D88AE7C3496144CD
:10E3000089B2414500D884E7C249884204D08C458F
:10E3100002D0604500D97CE705201221B054501C82
:10E3200080B23154901C80B2288019883018017056
:10E33000090A417004325B8892B2B21813701B0A4A
:10E34000537053462B80636A9846002B2ED09B88CF
:10E350002A88981C9946931CC1181F2900D94EE79A
:10E36000FE2800D94BE74946FF200331B154511C28
:10E3700089B2705441462B801B0409881B0CF3188A
:10E380001970090A59704346043290B228809A885D
:10E39000002A0BD09968002900D13AE7301801F023
:10E3A000ABF942462B8892889B182B802C23E15C8A
:10E3B000002900D08FE02378002B00D123E72288AA
:10E3C000012A00D125E72A88901C1F2800D916E7CA
:10E3D000012B04D163781B181F2B00D90FE71D23D5
:10E3E0009A1A93B299464A460CAB301819009846CF
:10E3F0001A80FFF73DFC002800D00BE72378022BA2
:10E4000000D1F2E0012B00D1F7E043464A46082153
:10E410001A804B46FE2B00D9F1E64A462B88013282
:10E42000F2545A1C023392B24B44B1542B80EAE6A8
:10E430006B460022DF810023FFE60CAB18009846F4
:10E44000FFF710FC002800D0E4E608221B212B88EF
:10E4500004AEF2545A1C92B2023398B2B15416313F
:10E46000288006226944301801F046F941462B887D
:10E4700009789A1D92B22A80002900D0B2E0B21821
:10E4800011700733A2789BB22B80002A00D1A7E03D
:10E4900004330C201F2B00D9BCE6D5E60823984690
:10E4A0001733A044994601930095330002220221BC
:10E4B0004046FFF7E1FB002800D0ABE64B46009555
:10E4C00001931022330006214046FFF7D5FB0028B8
:10E4D00000D1EFE69EE6A36A9846002B00D198E6AD
:10E4E0009B880233FE2B00D989E600229146163222
:10E4F00092461632288893460CE04B46A26A5B008F
:10E5000090464B449B00984443469B880233FE2B25
:10E5100000D974E6524601333354431C9BB2F25483
:10E520004246831C9BB22B801288F3181A70120A81
:10E530005A704346043080B228809A88002A0ED050
:10E540009968002900D164E6301801F0D5F84346F7
:10E5500028889B88C0185B4680B2E15C28804B46C7
:10E560000133DBB299468B42C7D324E71023984688
:10E570000F33A044994601930095330002220321F2
:10E580004046FFF779FB002800D043E64B46009554
:10E5900001931022330007214046FFF76DFB00284E
:10E5A00000D18BE636E6182398460733A0449946F7
:10E5B000019300953300022214214046FFF75CFBD3
:10E5C000002800D026E64B46009501931022330028
:10E5D00015214046FFF750FB002800D172E619E6EE
:10E5E000E1784AE60121B1544BE743461B8899453F
:10E5F00000D20AE7994609210BE76378994500D2D2
:10E6000003E7424699461380082102E77FF3FFFFA4
:10E610007DF30000FFFF000073DF704774DF704779
:10E62000F0B57F4C072287B0060000212000FCF7E0
:10E63000E1FD7C4D7C4B2A687C4F1A4202D03B782E
:10E64000012B38D0AB78002B32D16378002B64D10A
:10E65000A378002B61D1E378002B5ED12379002BC6
:10E660005BD16379002B58D1A3795A1E9341DBB259
:10E67000022E55D0022E29D9032E2ED0042E02D1DF
:10E680002B79002B53D100263E700022684B1A7064
:10E69000182200216846FCF7ADFD00236A4613707E
:10E6A00013723B78042B28D8624A9B00D3589F46AC
:10E6B0003B78022BC9D1604B604A1B68002B00D10C
:10E6C000ACE00121082011709847BEE7012EDAD195
:10E6D0006A78002A24D0002BD6D1EB78002BCFD03B
:10E6E000032325E00222564B01941A706A46012347
:10E6F0001370EB685382AB6813826846FFF78CFF98
:10E70000002808D14C4B1B68002B00D182E04C4AFA
:10E7100010789847002007B0F0BD0123022EA9D140
:10E72000AA78002AD9D0002BD7D00226ACE7042340
:10E730003B70414B1B68002BA7D02A78002AA4D03D
:10E74000404A1278002AA0D10121394A07201170CD
:10E7500098479DE76A462B6913826B6953822B7831
:10E76000002B4FD0374B1B78002B4BD1364B1A79EF
:10E77000002A02D11A7B002A44D003936A4602235E
:10E780003248137200210233C370FFF705FD0028E1
:10E7900042D105222A4B1A703B7826E00022284BF2
:10E7A0001A70AFE76A46AB691382EB6953822B7824
:10E7B000002B2BD0234B1B78002B27D1224B1A790F
:10E7C000002A02D11A7B002A20D003936A46022332
:10E7D0001E48137200210233C370FFF7DDFC0028CE
:10E7E0001AD10622164B1A703B78002B00D189E70C
:10E7F00083E70123124A019413706A4613700023C1
:10E8000004937AE703220E4B1A7076E704220C4B2E
:10E810001A7072E700207EE73B78E6E7137014E792
:10E820005C2600208025002000FFFF007D250020C1
:10E830004C27002004070200E42500205826002071
:10E840007C2500204D2700205C200020A0250020F2
:10E85000F8B504000E00002800D1AEE0002A00D177
:10E86000ABE0012056490870002056490870564810
:10E870000100A1CAA1C1A1CAA1C121CA21C1534A93
:10E8800000211360524B069A52481A600122524BE3
:10E8900052421A800832FCF7ADFC504D00213C2258
:10E8A0002800FCF7A7FC237822002B70A3781032F5
:10E8B000AB70E378EB7063786B702B00103303CA96
:10E8C00003C32B00103A083303CA03C32B000832DA
:10E8D000183303CA03C3636A002B11D0404B414F66
:10E8E0006B62616A9F600A881A8088889880002815
:10E8F00006D000238A68D25CFA5401339842F9D8D2
:10E90000A36A002B14D0384B384FAB62A16A9F60CA
:10E91000888898800A881A80002806D000238A6890
:10E92000D25CFA5401338342F9D32C23E25CEA54DB
:10E93000236A002B06D02E4B2B62226A5188598005
:10E9400012881A806368002B00D06B6029492A4B1B
:10E950000A68D81D13600A68506018000E30906075
:10E9600018001530D06018001C30106118002330DA
:10E97000506118003133D361204B2A309061180068
:10E980008A68103013608A68506018008A682030E6
:10E9900090608A6819003031D160190040311161EE
:10E9A0001900503151611900703360319161D361A8
:10E9B00031002800FFF7F0FBF8BD0E20FCE7C04651
:10E9C000E82500207D25002080250020E42500206A
:10E9D000E02500205C260020DE250020A025002068
:10E9E0000C260020EC250020642600207026002044
:10E9F000902600205C20002094260020CC260020B9
:10EA000010B50C4B04001B7882B00820002B0BD0F3
:10EA1000094B01A81C70FDF7A7FA019B002B05D03C
:10EA200001220020054B1A7002B010BD2000FFF734
:10EA3000F7FDF9E7E82500207D250020DC250020F2
:10EA400030B5038883B0112B25D01B2B0AD0102B97
:10EA500001D003B030BD837D012BFAD18288224BD7
:10EA60001A80F6E7037A002BF3D1204B1B78002B9A
:10EA70002CD01F4D05212878013000F037FE01A869
:10EA8000CCB22C70FDF770FA019B002B25D001222F
:10EA9000184B1A70DDE70021174A83881170124A5B
:10EAA00012889A42D5D1114B1B78002B0ED001222F
:10EAB0000F4B01A81A70FDF757FA019B002BE6D106
:10EAC0000120FFF7ADFD002801D1C2E708200B4B64
:10EAD0001B68002BBDD09847BBE72000FFF7A0FDC7
:10EAE0000028F4D1B5E7C046DE250020E825002047
:10EAF0007D250020DC2500204D270020E02500207A
:10EB000070B5012582B0FFF789FD144B14481D70C4
:10EB100006230021C370FFF73FFB041E02D0200034
:10EB200002B070BD0F4B1B78002B0AD00E4B01A812
:10EB30001E78FDF719FA019B002B09D00B4B1D70B5
:10EB4000EDE708200A4B1B68002BE8D09847E6E762
:10EB50003000FFF765FD0028F4D1E0E74D270020E5
:10EB6000A0250020E82500207D250020DC250020B0
:10EB7000E025002075DF704776DF70477ADF704749
:10EB80007BDF704710B5184B82B01888174B98423E
:10EB900014D0174A174C13780133DBB21370217B62
:10EBA00099420DD200231370237C002B12D163698C
:10EBB000002B03D0002201A80270984702B010BDBC
:10EBC0000D49FFF7D7FF0028F8D0A369002BF5D037
:10EBD0009847F3E73B21FFF7CFFF0028E7D0A36971
:10EBE000002BE4D09847E2E750270020FFFF000009
:10EBF000A0270020542700209827002030B51B4B69
:10EC00001B4A5B88118883B099420CD852889A427B
:10EC100009D3184B5B69002B03D0012201A80270B5
:10EC20009847154C0BE0144C2378002B0BD0114B5C
:10EC30005B69002B03D0002201A8027098470023D3
:10EC4000237003B030BD0D4B0A4D1B78002B0BD049
:10EC5000A96800220A48FCF7A3FF0028EFD0AB699F
:10EC6000002BECD09847EAE76968F2E7902700208C
:10EC700098270020542700204E270020A02700209E
:10EC800070270020164902000B0070B532CA32C34B
:10EC900032CA32C312681A600022124B01681A701D
:10ECA000002916D0104C0832200000F025FD20006D
:10ECB000FFF764FF00280BD101220C4B52421A804F
:10ECC00000220B4B00211A700A480B4AFCF752FF36
:10ECD00070BD0548FFF754FF0028EDD0F8E7C046A7
:10ECE000542700204E27002098270020502700207E
:10ECF000A02700201807020085EB010030B503882B
:10ED000083B0112B37D023D9122B08D0502B04D12C
:10ED10003B4CC288E3899A424CD003B030BD394B9A
:10ED200008301A0012C812C2374A5B88118899420B
:10ED300033D9364C2378002B4ED0314B5B69002BF6
:10ED400003D0002201A80270984700232370E4E753
:10ED5000102BE2D182882E4B18301A80294B06C81E
:10ED600006C300222B4B1A70254BDB89002BD4D114
:10ED7000FFF744FFD1E70122254B52421A800022BF
:10ED8000244B25481A70FCF76DFF0028C5D01C4B9A
:10ED90009B69002BC1D09847BFE752889A42C8D3DD
:10EDA000174B5B69002B03D0012201A80270984722
:10EDB000164CCAE7038A022BAFD1123000F02EF8AE
:10EDC0000028D5D11448FCF74DFF0028A5D0A36931
:10EDD000002BA2D09847A0E70E4B094D1B78002BC3
:10EDE0000BD0A96800220C48FCF7DAFE0028ACD052
:10EDF000AB69002BA9D09847A7E76968F2E7C0463E
:10EE00005427002090270020982700204E2700201C
:10EE100050270020A0270020702700200123007821
:10EE20001840704703210A4802680A4302600948F3
:10EE300002680A4302600849084A094B9B1A03DD2D
:10EE4000043BC858D050FBDC00F012F8FCF75CF92A
:10EE50002405004054050040CC070200E81F0020B4
:10EE600078200020FEE7FEE7FEE7FEE7FEE7FEE78C
:10EE70002E4B1B78012B00D070472D4B1B681B07B6
:10EE8000FAD1F0222B4B1B68134027D12A4B1B6869
:10EE900013422BD0264B1B681B07EDD1F022254BCC
:10EEA0001B681340402B2DD0F022224B1B681340CF
:10EEB000A02B01D0D02BDFD1F0231F4A12681A42B9
:10EEC000DAD11E4A1368012B04D01D4B136013685E
:10EED000012BFCD1C0221B4B1A60CDE7102B01D0B7
:10EEE000302BDBD1144B1B681342D7D1164B174A7A
:10EEF0001A608022164B12021A600C4B1B78012BF1
:10EF0000C8D0B9E70C4B1B681342CDD18022C12376
:10EF10000121DB00D205D150044B1B78012BABD172
:10EF2000034B1B681B07BFD0A6E7C046E00F00F0ED
:10EF3000E40F00F0E80F00F0EC0F00F000EC0640EA
:10EF40007593000014EC064004050040DFFF07C085
:10EF5000186C0040A0DF7047A2DF7047A6DF704743
:10EF600063DF704710B5041E08D0002906D00B8857
:10EF7000112B04D0502B09D0102B04D010BD01232D
:10EF80005B428382FAE78B888382F7E7CB88028A29
:10EF90009A420AD0A2889A42F0D1A369002BEDD000
:10EFA0000A8A200012319847E8E70A8A022AF1D13A
:10EFB00012310800FFF732FF002802D00123A375A9
:10EFC000DCE7A075DAE7C046F0B557464E46454641
:10EFD000DE46E0B595B0040004A80200674BE0CB24
:10EFE000E0C21B681360002C00D1C5E0002900D1ED
:10EFF000C2E001235B42A3820B682100A3610023CE
:10F00000A375FFF7ADFF071E07D0380015B03CBC55
:10F0100090469946A246AB46F0BD237802A98B7074
:10F020000123A21C012099460B80FFF793FF071EC6
:10F03000EBD1032200216846FCF7DCF802216A4686
:10F0400088464F4B414613809378062293430B43E7
:10F0500069460DAD8B70163200212800FCF7CAF806
:10F0600010218B4659462B7801AE0B432B706B4613
:10F0700069466B61237803228B73032330008B81F5
:10F0800000216F60EF602F61AF61FCF7B3F80123DF
:10F090009A465B4651460B4333705B4606220B4350
:10F0A0007370B37808A893434246134308229343EE
:10F0B000083293430B4314220021B370FCF79AF8F3
:10F0C00003AB08934B4614220A936B469A852300A0
:10F0D00060880C3308AA29000996FFF73DFF071E38
:10F0E00093D11C2200212800FCF784F808222B78F9
:10F0F00000211343042213436A462B702378300007
:10F1000093730223938103226F60EF602F616F611D
:10F11000AF61FCF76FF80F225146337808A893438C
:10F120000B43594613400B43514633707378934356
:10F130000B4313405A46134306227370B37893432C
:10F140004246134308229343083293430B4314224D
:10F150000021B370FCF74EF803AB08934B46142222
:10F160000A936B469A856088231D08AA2900099690
:10F17000FFF7F2FE070048E70E2746E71C070200EC
:10F180001111000070B586B06B4604000E00DA80E5
:10F19000002821D0828A114B9A421BD0837D002BFC
:10F1A00018D06B46DB880720142B11D802AD002144
:10F1B00010222800FCF71EF8A389A08A2B806B463A
:10F1C0000633AB6001232900EE60AB70FFF7C6FE8B
:10F1D00006B070BD0820FBE70E20F9E7FFFF000036
:10F1E00052DF704710DF704760DF704761DF7047A4
:10F1F00010B5FCF707F910BDF0B557464E46454629
:10F20000DE46E0B52D4B2E4E1D6899466B425D41A2
:10F210002C4B2D4F98462D4B83B09A46EDB2347847
:10F22000E4B2002C26D101A8FFF7DAFF052835D07B
:10F23000002826D0FCF7D6F8002D2DD13578EDB278
:10F24000002D17D143466A461B8801A993803B686D
:10F2500018009B46FFF7CAFF052823D0002824D1B9
:10F260004B4658461B689847002CD8D03378012469
:10F27000002BE7D003B03CBC90469946A246AB4673
:10F28000F0BD0198FCF768FF53461B68002B11D0B6
:10F2900001989847002DD1D00125C0E7002DE9D174
:10F2A0000124CBE7002CF7D0E4E7FCF79BF8002C17
:10F2B000DCD1B4E7002DC1D00125B0E7A4270020A0
:10F2C000AD270020A2270020B4270020B02700206F
:10F2D000014B1878C0B27047AC27002070B50029E8
:10F2E00030D0032421422DD101261C4D29601C4918
:10F2F0001C4D0A801C4A13602B681E4208D08023D4
:10F300001A49EE50FFF76EFF002806D02E6070BD40
:10F310001649FFF767FF0028F9D1154B1E70FCF75F
:10F320002DFFC5239B00EB589B0D1C40E30712D516
:10F33000104B5A68002A07D180220A4BD2031A6068
:10F340000020E4E70720E2E780221968D2030A439D
:10F350001A600020DBE70848D9E7C046B427002040
:10F36000A227002000E100E0A8270020F1F1010021
:10F37000AC270020C427002002200000002803D072
:10F38000024B1860002070470E20FCE7A4270020E5
:10F3900010B5094B1B68002B06D09847002800D1F8
:10F3A00010BDFCF71FF8FBE7044B1B78002BF7D0D0
:10F3B000FFF722FFF4E7C046A8270020AC27002073
:10F3C00070B5140005000E00142200212000FBF788
:10F3D00011FF002301222361237B228093432373A7
:10F3E00026726572002D01D00123A372002070BD2A
:10F3F00000B5054B83B00193019B69460093FFF76D
:10F40000F3FE019B03B000BDE81F0020002243086B
:10F410008B4274D303098B425FD3030A8B4244D3DC
:10F42000030B8B4228D3030C8B420DD3FF2209021E
:10F4300012BA030C8B4202D31212090265D0030BDD
:10F440008B4219D300E0090AC30B8B4201D3CB03D3
:10F45000C01A5241830B8B4201D38B03C01A524115
:10F46000430B8B4201D34B03C01A5241030B8B4217
:10F4700001D30B03C01A5241C30A8B4201D3CB0202
:10F48000C01A5241830A8B4201D38B02C01A5241E7
:10F49000430A8B4201D34B02C01A5241030A8B42EA
:10F4A00001D30B02C01A5241CDD2C3098B4201D302
:10F4B000CB01C01A524183098B4201D38B01C01A80
:10F4C000524143098B4201D34B01C01A52410309F7
:10F4D0008B4201D30B01C01A5241C3088B4201D3A6
:10F4E000CB00C01A524183088B4201D38B00C01A53
:10F4F000524143088B4201D34B00C01A5241411A7A
:10F5000000D20146524110467047FFE701B5002086
:10F5100000F0F0F802BDC0460029F7D076E770474A
:10F5200003460B437FD4002243088B4274D3030964
:10F530008B425FD3030A8B4244D3030B8B4228D305
:10F54000030C8B420DD3FF22090212BA030C8B422B
:10F5500002D31212090265D0030B8B4219D300E0CB
:10F56000090AC30B8B4201D3CB03C01A5241830B50
:10F570008B4201D38B03C01A5241430B8B4201D300
:10F580004B03C01A5241030B8B4201D30B03C01A29
:10F590005241C30A8B4201D3CB02C01A5241830AA3
:10F5A0008B4201D38B02C01A5241430A8B4201D3D2
:10F5B0004B02C01A5241030A8B4201D30B02C01AFC
:10F5C0005241CDD2C3098B4201D3CB01C01A524163
:10F5D00083098B4201D38B01C01A524143098B42EC
:10F5E00001D34B01C01A524103098B4201D30B01D5
:10F5F000C01A5241C3088B4201D3CB00C01A5241FA
:10F6000083088B4201D38B00C01A524143088B42BE
:10F6100001D34B00C01A5241411A00D20146524157
:10F62000104670475DE0CA0F00D04942031000D376
:10F630004042534000229C4603098B422DD3030ACB
:10F640008B4212D3FC22890112BA030A8B420CD3DB
:10F65000890192118B4208D3890192118B4204D304
:10F6600089013AD0921100E08909C3098B4201D384
:10F67000CB01C01A524183098B4201D38B01C01ABE
:10F68000524143098B4201D34B01C01A5241030935
:10F690008B4201D30B01C01A5241C3088B4201D3E4
:10F6A000CB00C01A524183088B4201D38B00C01A91
:10F6B0005241D9D243088B4201D34B00C01A524168
:10F6C000411A00D20146634652415B10104601D3F5
:10F6D0004042002B00D54942704763465B1000D37F
:10F6E000404201B5002000F005F802BD0029F8D025
:10F6F00016E770477047C046002310B59A4200D104
:10F7000010BDCC5CC4540133F8E700000FB40B4BC0
:10F7100013B51C68002C05D0A369002B02D1200072
:10F7200000F058F805AB049AA1682000019300F09E
:10F730006BF916BC08BC04B01847C046E81F00208F
:10F740000023C25C0133002AFBD1581E7047000021
:10F75000002310B504000360436083608181436629
:10F76000C281036143618361190008225C30FBF7A9
:10F7700041FD054B24626362044BA362044BE362C8
:10F78000044B236310BDC04645FF01006DFF01001F
:10F79000A5FF0100D1FF010010B5024900F08CF86F
:10F7A00010BDC046D502020070B568254A1E5543FB
:10F7B0000E002900743100F0A1F8041E08D00021C9
:10F7C0002A00016046600C30A0606832FBF712FD31
:10F7D000200070BD836913B50400002B28D1836419
:10F7E000C3640365134B144A1B68826201939842F9
:10F7F00001D101238361200000F020F86060200027
:10F8000000F01CF8A060200000F018F80022E06072
:10F8100004216068FFF79CFF01220921A068FFF71F
:10F8200097FF02221221E068FFF792FF0123A361F4
:10F8300013BDC046C005020099F70100F8B51C4B86
:10F8400007001E68B369002B02D13000FFF7C2FF2A
:10F850004836B4687368013B04D53368002B07D081
:10F860003668F6E70C22A55E002D0DD06834F2E76D
:10F8700004213800FFF798FF30600028F0D10C23F6
:10F8800004003B602000F8BD20000A4B656625603F
:10F890006560A560E36025616561A56108222900B6
:10F8A0005C30FBF7A7FC6563A563A564E564E9E745
:10F8B000C00502000100FFFFF7B5040007000026A5
:10F8C00001914834002C01D13000FEBD6368A56869
:10F8D0000093009B013B009301D52468F2E7AB89BC
:10F8E000012B08D90E22AB5E013304D02900380069
:10F8F000019B984706436835EBE70000032370B58A
:10F90000CD1C9D43083506000C2D1ED20C25A942A6
:10F910001DD8300000F095FD254A1468210000290B
:10F9200019D1244C2368002B03D1300000F0F8FAE1
:10F9300020602900300000F0F3FA431C2BD10C2387
:10F940003000336000F07EFD03E0002DDFDA0C2391
:10F950003360002070BD0B685B1B19D40B2B03D9DF
:10F960000B60CC18256003E04B688C420DD113600E
:10F97000300000F067FD200007220B30231D90436C
:10F98000C31AE7D05A42E250E4E763600C00EFE7A5
:10F990000C004968C3E70323C41C9C43A042E1D088
:10F9A000211A300000F0BCFA431CDBD1C7E7C04687
:10F9B000B8270020BC270020936810B5013B936056
:10F9C000002B04DA9469A34207DB0A2905D01368E7
:10F9D000581C10601970080010BD00F0FFFA0100FB
:10F9E000F9E7F8B506000F001400D518AC4201D1B4
:10F9F000002007E021783A003000FFF7DDFF0134F6
:10FA0000431CF3D1F8BD0000F0B59FB002900F0089
:10FA100016000593002805D083690493002B01D1BB
:10FA2000FFF7D8FE7B4B9F425BD1029B5F68BB898F
:10FA30001B0762D53B69002B5FD0002306AC6361D6
:10FA4000203363761033A37635002B78002B01D05A
:10FA5000252B5CD1AB1B04930CD0320039000298EB
:10FA6000FFF7BFFF431C00D1C4E06269049B9446CA
:10FA7000634463612B78002B00D1BBE0012200239B
:10FA80005242626002A9543252186E1C2360E36035
:10FA9000A3601370A365317805225F4800F0C6FCAF
:10FAA000751C002835D12268D30604D5532302A93A
:10FAB0005B1820211970130704D5532302A95B1882
:10FAC0002B21197033782A2B2CD0350000210A20E5
:10FAD000E3682A786E1C303A092A64D900292ED0AE
:10FAE00026E04E4B9F4202D1029B9F689FE74C4B02
:10FAF0009F429CD1029BDF6899E73900029800F091
:10FB0000D7FA002899D0012040421FB0F0BD01353E
:10FB10009BE7414B2268C01A0123834013432360B3
:10FB20002E00B8E7059B191D1B680591002B01DB12
:10FB3000099304E05B42E3600223134323602B78C4
:10FB40002E2B0AD16B782A2B35D1059B02351A1D35
:10FB50001B680592002B2BDB0793324E297803227A
:10FB6000300000F063FC002806D04023801B834057
:10FB70002268013513432360297806222A486E1C27
:10FB8000217600F053FC00283AD0284B002B25D1D9
:10FB90000722059B07339343083305936369039A50
:10FBA0009B18636150E7434301219B18350090E7A0
:10FBB00001235B42D0E700230A201A00013563606D
:10FBC00029786E1C3039092903D9002BC5D007923A
:10FBD000C3E74243012352183500F1E705AB009318
:10FBE0003A00134B2100029800E000BF0390039BF2
:10FBF0000133D3D1BB895B0600D584E70B9884E73A
:10FC000005AB00933A000A4B2100029800F080F8FF
:10FC1000ECE7C0464C0702008C0702006C070200AC
:10FC20002C07020092070200960702000000000065
:10FC3000E3F90100F7B5150001938A680B6900909C
:10FC40000C00934200DA130022002B60433212783A
:10FC5000002A01D001332B6023689B0602D52B6854
:10FC600002332B60062723681F4027D0230043332D
:10FC70001B785A1E93412268920630D422000199C3
:10FC800043320098089EB047431C25D006232068C5
:10FC90002A68E16803400025042B03D18D1AEB4349
:10FCA000DB171D40A3682269934201DD9B1AED1802
:10FCB0000027BD4220D1002010E00137E3682A6808
:10FCC0009B1ABB42D2DD2200012319320199009810
:10FCD000089EB047431CF0D101204042FEBD3020B9
:10FCE000E1184331087021005A1C45310978A218E7
:10FCF000433202331170C1E7220001231A32019905
:10FD00000098089EB047431CE6D00137D1E70000B9
:10FD1000F0B589B004920A00433205930390029231
:10FD20000A7E0C000E9B6E2A00D186E01FD8632A43
:10FD300033D008D8002A00D18CE0582A4DD02500B5
:10FD400042352A7030E0642A01D0692AF7D1196857
:10FD500025680A1D280629D508681A60002803DAD4
:10FD60002D23029A404213706B4E0A274FE0732AEC
:10FD700074D008D86F2A1FD0702AE0D120220968D9
:10FD80000A43226003E0752A16D0782AD7D12200D0
:10FD9000782145321170614E22E025001A68423503
:10FDA000111D196013682B70012365E008681A6043
:10FDB0006906D3D500B2D1E719682568081D186017
:10FDC00008682E0605D5544E08276F2A1BD00A272F
:10FDD00019E06D06F7D580B2F5E745314E4E0A7051
:10FDE00018682268011D00681960150621D5D3071F
:10FDF00002D520231A4322601027002803D1202394
:10FE000022689A4322602300002243331A706368F9
:10FE1000A360002B58DB0422216891432160002855
:10FE200054D1029D002B5AD02500337842352B70D7
:10FE300055E05506DBD580B2D9E71A680D68101D6C
:10FE40004969186013682E0601D5196002E06D0635
:10FE5000FBD519800023029D23614FE01A68111D14
:10FE60001960156800216268280000F0DFFA002898
:10FE700001D0401B6060636823610023029A137005
:10FE80003CE023692A0004990398059DA847431C78
:10FE90003ED023689B0715D4079BE068984239DA67
:10FEA000180037E022000123193204990398059EB7
:10FEB000B047431C2CD00135E368079A9B1AAB422C
:10FEC000F0DCE9E70025F7E70028ADD0029D390016
:10FED000FFF722FB735C013D2B700028F7D1082F40
:10FEE00009D12368DB0706D563682269934202DCE7
:10FEF0003023013D2B70029B5B1B2361059B07AAEE
:10FF000000932100049B0398FFF794FE431CB8D193
:10FF10000120404209B0F0BD9D070200AE0702007B
:10FF2000002370B5064C05000800236000F02EFB8E
:10FF3000431C03D12368002B00D02B6070BDC0464A
:10FF4000CC27002070B50C000E25495F00F0C6FAE2
:10FF5000002803DB636D1B18636570BDA389024A2B
:10FF60001340A381F9E7C046FFEFFFFFF8B51F007C
:10FF70008B8905000C001600DB0505D50E23C95E34
:10FF80000022022300F0D2F9A389054A2800134079
:10FF9000A38132000E23E15E3B0000F075F8F8BD4E
:10FFA000FFEFFFFF70B50C000E25495F00F0BEF9B2
:10FFB000A389421C03D1054A1340A38170BD80224E
:10FFC00052011343A3816065F8E7C046FFEFFFFFCE
:10FFD00010B50E23C95E00F0E1F810BDF8B50500BC
:10FFE0000E001400002804D08369002B01D1FFF714
:10FFF000F1FB224B9C422DD16C68A369A360A389BD
:020000022000DC
:100000001B0731D52369002B2ED023682269F7B254
:10001000981A6369F6B2834205DC2100280000F0DB
:1000200059F9002826D1A3680130013BA360236859
:100030005A1C22601F706369834204D0A389DB07C6
:100040001AD50A2E18D12100280000F043F9002803
:1000500012D00FE00A4B9C4201D1AC68CDE7094BAE
:100060009C42CAD1EC68C8E72100280000F020F8C3
:100070000028CAD0012676423000F8BD4C070200A5
:100080006C0702002C07020070B505000800110083
:100090000022064C22601A00FBF772FF431C03D1BA
:1000A0002368002B00D02B6070BDC046CC270020F9
:1000B000364B70B51D6806000C00002D05D0AB69ED
:1000C000002B02D12800FFF785FB314B9C420FD15A
:1000D0006C680C23E25E93B219072DD4D90611D4B3
:1000E00009230120336037331343A381404270BD9D
:1000F000284B9C4201D1AC68EBE7274B9C42E8D1EE
:10010000EC68E6E75B0713D5616B002908D0230094
:100110004433994202D0300000F096F90023636323
:100120002422A3899343A38100236360236923606E
:100130000823A2891343A3812369002B0BD1A0219B
:100140008022A389890092000B40934203D02100B2
:10015000300000F027F90123A289134011D00023B9
:10016000A36063695B42A361002023698342BED11F
:100170000C23E25E1306BAD540231343A381013852
:10018000B5E7920700D46369A360EDE7E81F00209C
:100190004C0702006C0702002C070200002370B518
:1001A000064C05000800236000F0D0F9431C03D181
:1001B0002368002B00D02B6070BDC046CC270020E8
:1001C000F7B58A8905000C00130760D44B68002B33
:1001D00004DC0B6C002B01DC0020FEBDE76A002F65
:1001E000FAD000232E682B6080235B01216A1A401D
:1001F00034D0606DA3895B0706D56368C01A636B52
:10020000002B01D0236CC01A0200216A00232800B1
:10021000E76AB847A189431C06D12B681D2B30D84B
:100220002B4ADA40D3072CD500236360236923606F
:10023000CB0405D5431C02D12B68002B00D160658F
:10024000616B2E600029C7D023004433994202D04D
:10025000280000F0F9F800206063BEE701232800C1
:10026000B847431CC6D12B68002BC3D01D2B01D02F
:10027000162B01D12E60AFE74023A2891343A3813F
:10028000ABE740230B430120A3814042A5E70F6960
:10029000002FA1D00B680F60DB1B01930023920796
:1002A00000D14B69A360019B002B00DC94E7019B0C
:1002B0003A00216A2800A66AB047002803DC4023E0
:1002C000A2891343DFE7019B3F181B1A0193EAE75A
:1002D000010040200B6970B505000C00002B01D116
:1002E000002070BD002804D08369002B01D1FFF7E6
:1002F00071FA0B4B9C4209D16C680C22A35E002B57
:10030000EED021002800FFF75BFFEAE7054B9C4297
:1003100001D1AC68F1E7044B9C42EED1EC68ECE70C
:100320004C0702006C0702002C07020070B50500A4
:10033000080011000022064C22601A0000F01EF98D
:10034000431C03D12368002B00D02B6070BDC04636
:10035000CC27002070B50E001D000E23C95E96B09C
:100360001400002907DA00232B60B3891B0611D47F
:100370008023DB000FE06A4600F0C4F80028F2DBBF
:10038000F022019B12021340054A9B185A42534126
:100390002B60EDE740230020236016B070BDC046FF
:1003A00000E0FFFFF7B502268B8905000C00334201
:1003B00006D0230047332360236101236361F7BD27
:1003C00001AB6A46FFF7C6FF009907002800FFF758
:1003D00095FA002808D10C22A35E9A05EFD40322D7
:1003E00093431E43A681E4E70F4BAB628023A289AF
:1003F00020601343A381009B20616361019B002B5C
:100400000DD00E23E15E280000F08EF8002806D003
:100410000322A38993431A0001231343A381A089D4
:100420003843A081CBE7C04699F70100C9B28218D2
:10043000904201D10020704703788B42FBD00130FD
:10044000F6E770477047000070B50500002910D02E
:100450000C1F2368002B00DAE4182800FFF7F1FFD7
:100460001D4A1368002B05D1636014602800FFF754
:10047000E9FF70BDA34209D9216860188342F3D116
:1004800018685B6841182160EEE713005A68002A7B
:1004900001D0A242F9D919685818A0420BD120689E
:1004A0000918581819608242E0D110685268411842
:1004B00019605A60DAE7A04202D90C232B60D5E715
:1004C00021686018824203D1106852684118216087
:1004D00062605C60CAE7C046B827002070B50500BE
:1004E000080011000022064C22601A00FBF756FD9E
:1004F000431C03D12368002B00D02B6070BDC04685
:10050000CC270020002370B5064C05000800110020
:10051000236000F023F8431C03D12368002B00D094
:100520002B6070BDCC270020002370B5064C050061
:100530000800236000F01AF8431C03D12368002B45
:1005400000D02B6070BDC046CC270020582201206F
:10055000014B40421A607047CC27002058220120EE
:10056000014B40421A607047CC2700205822024BB2
:1005700000201A607047C046CC2700205822012076
:10058000014B40421A607047CC270020044A136890
:10059000002B00D1034B1818106018007047C0469C
:1005A000C0270020D0270020F8B5C046F8BC08BC02
:1005B0009E467047F8B5C046F8BC08BC9E467047DA
:1005C000EC1F00209C200020FFFFFFFFFFFFFFFF2C
:1005D000FFFFFFFFFFFFFFFF000000000000000023
:1005E00000E0D70103000000111A00000D0E0F00FB
:1005F000D6D10100E0D10100E0D1010010D201000C
:1006000026D20100A6D10100CAD101009AD1010071
:10061000F6D00100DAD00100F6D00100DAD00100F6
:1006200016D1010020D1010020D1010020D101000C
:1006300020D1010020D101005AD1010064D1010074
:1006400074D1010084D101000ED101000ED101004E
:100650008CD301009AD301009AD30100D0D30100BA
:10066000FCD3010054D301007ED3010044D3010028
:100670002AD301000CD301002AD301000CD30100BE
:10068000AAD401002ED401002ED401002ED40100E2
:100690002ED401002ED4010068D4010076D40100CC
:1006A0008AD4010014D401009ED401009ED401001C
:1006B00011000300F5CF01001A000300F5CF01007F
:1006C00000220020242200205422002019000000D3
:1006D00018000000010000000200000000000000FF
:1006E00000E0D701001002004E6F726469635F552D
:1006F000415254000D0A5541525420537461727492
:10070000210D0A009CE70100F2E70100E4E6010088
:1007100054E70100A4E70100702700209ECADC24F2
:100720000EE5A9E093F3A3B50000406E00000000C1
:1007300000000000000000000000000000000000B9
:1007400000000000000000000000000000000000A9
:100750000000000000000000000000000000000099
:100760000000000000000000000000000000000089
:100770000000000000000000000000000000000079
:10078000000000000000000000000000232D302BBE
:100790002000686C4C006566674546470030313282
:1007A00033343536373839414243444546003031D9
:1007B0003233343536373839616263646566000038
:0407C0000000000035
:0807C40044A9FF7F01000000C1
:1007CC00EC1F0020000000004C0702006C07020028
:1007DC002C070200000000000000000000000000D8
:1007EC0000000000000000000000000000000000FD
:1007FC0000000000000000000000000000000000ED
:10080C0000000000000000000000000000000000DC
:10081C0000000000000000000000000000000000CC
:10082C000000000000200040000000000100020059
:10083C00FFFF0000182600200000000038260020D2
:10084C00000000000024F400E9B00100C1B0010078
:040000031000EE25D6
:00000001FF
